{
	"FundMe.sol": {
		"FundMe": {
			"abi": [
				{
					"inputs": [],
					"name": "fund",
					"outputs": [
						{
							"internalType": "bool",
							"name": "",
							"type": "bool"
						}
					],
					"stateMutability": "payable",
					"type": "function"
				},
				{
					"inputs": [
						{
							"internalType": "address",
							"name": "",
							"type": "address"
						}
					],
					"name": "fundAmount",
					"outputs": [
						{
							"internalType": "uint256",
							"name": "",
							"type": "uint256"
						}
					],
					"stateMutability": "view",
					"type": "function"
				},
				{
					"inputs": [
						{
							"internalType": "uint256",
							"name": "",
							"type": "uint256"
						}
					],
					"name": "funders",
					"outputs": [
						{
							"internalType": "address",
							"name": "",
							"type": "address"
						}
					],
					"stateMutability": "view",
					"type": "function"
				}
			],
			"devdoc": {
				"kind": "dev",
				"methods": {},
				"version": 1
			},
			"evm": {
				"assembly": "    /* \"FundMe.sol\":164:998  contract FundMe {... */\n  mstore(0x40, 0x80)\n    /* \"FundMe.sol\":305:314  50 * 1e18 */\n  0x02b5e3af16b1880000\n    /* \"FundMe.sol\":284:314  uint256 minimumUSD = 50 * 1e18 */\n  0x00\n  sstore\n    /* \"FundMe.sol\":164:998  contract FundMe {... */\n  callvalue\n  dup1\n  iszero\n  tag_1\n  jumpi\n  0x00\n  dup1\n  revert\ntag_1:\n  pop\n  dataSize(sub_0)\n  dup1\n  dataOffset(sub_0)\n  0x00\n  codecopy\n  0x00\n  return\nstop\n\nsub_0: assembly {\n        /* \"FundMe.sol\":164:998  contract FundMe {... */\n      mstore(0x40, 0x80)\n      jumpi(tag_1, lt(calldatasize, 0x04))\n      shr(0xe0, calldataload(0x00))\n      dup1\n      0xb60d4288\n      eq\n      tag_2\n      jumpi\n      dup1\n      0xb82ffdf9\n      eq\n      tag_3\n      jumpi\n      dup1\n      0xdc0d3dff\n      eq\n      tag_4\n      jumpi\n    tag_1:\n      0x00\n      dup1\n      revert\n        /* \"FundMe.sol\":445:991  function fund() public payable returns (bool) {... */\n    tag_2:\n      tag_5\n      tag_6\n      jump\t// in\n    tag_5:\n      mload(0x40)\n      tag_7\n      swap2\n      swap1\n      tag_8\n      jump\t// in\n    tag_7:\n      mload(0x40)\n      dup1\n      swap2\n      sub\n      swap1\n      return\n        /* \"FundMe.sol\":392:438  mapping (address => uint256) public fundAmount */\n    tag_3:\n      callvalue\n      dup1\n      iszero\n      tag_9\n      jumpi\n      0x00\n      dup1\n      revert\n    tag_9:\n      pop\n      tag_10\n      0x04\n      dup1\n      calldatasize\n      sub\n      dup2\n      add\n      swap1\n      tag_11\n      swap2\n      swap1\n      tag_12\n      jump\t// in\n    tag_11:\n      tag_13\n      jump\t// in\n    tag_10:\n      mload(0x40)\n      tag_14\n      swap2\n      swap1\n      tag_15\n      jump\t// in\n    tag_14:\n      mload(0x40)\n      dup1\n      swap2\n      sub\n      swap1\n      return\n        /* \"FundMe.sol\":361:385  address[] public funders */\n    tag_4:\n      callvalue\n      dup1\n      iszero\n      tag_16\n      jumpi\n      0x00\n      dup1\n      revert\n    tag_16:\n      pop\n      tag_17\n      0x04\n      dup1\n      calldatasize\n      sub\n      dup2\n      add\n      swap1\n      tag_18\n      swap2\n      swap1\n      tag_19\n      jump\t// in\n    tag_18:\n      tag_20\n      jump\t// in\n    tag_17:\n      mload(0x40)\n      tag_21\n      swap2\n      swap1\n      tag_22\n      jump\t// in\n    tag_21:\n      mload(0x40)\n      dup1\n      swap2\n      sub\n      swap1\n      return\n        /* \"FundMe.sol\":445:991  function fund() public payable returns (bool) {... */\n    tag_6:\n        /* \"FundMe.sol\":485:489  bool */\n      0x00\n        /* \"FundMe.sol\":849:859  minimumUSD */\n      dup1\n      sload\n        /* \"FundMe.sol\":812:845  msg.value.convertEthAmountInUSD() */\n      tag_24\n        /* \"FundMe.sol\":812:821  msg.value */\n      callvalue\n        /* \"FundMe.sol\":812:843  msg.value.convertEthAmountInUSD */\n      tag_25\n        /* \"FundMe.sol\":812:845  msg.value.convertEthAmountInUSD() */\n      jump\t// in\n    tag_24:\n        /* \"FundMe.sol\":812:859  msg.value.convertEthAmountInUSD() >= minimumUSD */\n      lt\n      iszero\n        /* \"FundMe.sol\":804:885  require(msg.value.convertEthAmountInUSD() >= minimumUSD, \"Don't send min amount\") */\n      tag_26\n      jumpi\n      mload(0x40)\n      0x08c379a000000000000000000000000000000000000000000000000000000000\n      dup2\n      mstore\n      0x04\n      add\n      tag_27\n      swap1\n      tag_28\n      jump\t// in\n    tag_27:\n      mload(0x40)\n      dup1\n      swap2\n      sub\n      swap1\n      revert\n    tag_26:\n        /* \"FundMe.sol\":895:902  funders */\n      0x01\n        /* \"FundMe.sol\":908:918  msg.sender */\n      caller\n        /* \"FundMe.sol\":895:919  funders.push(msg.sender) */\n      swap1\n      dup1\n      0x01\n      dup2\n      sload\n      add\n      dup1\n      dup3\n      sstore\n      dup1\n      swap2\n      pop\n      pop\n      0x01\n      swap1\n      sub\n      swap1\n      0x00\n      mstore\n      keccak256(0x00, 0x20)\n      add\n      0x00\n      swap1\n      swap2\n      swap1\n      swap2\n      swap1\n      swap2\n      0x0100\n      exp\n      dup2\n      sload\n      dup2\n      0xffffffffffffffffffffffffffffffffffffffff\n      mul\n      not\n      and\n      swap1\n      dup4\n      0xffffffffffffffffffffffffffffffffffffffff\n      and\n      mul\n      or\n      swap1\n      sstore\n      pop\n        /* \"FundMe.sol\":954:963  msg.value */\n      callvalue\n        /* \"FundMe.sol\":929:939  fundAmount */\n      0x02\n        /* \"FundMe.sol\":929:951  fundAmount[msg.sender] */\n      0x00\n        /* \"FundMe.sol\":940:950  msg.sender */\n      caller\n        /* \"FundMe.sol\":929:951  fundAmount[msg.sender] */\n      0xffffffffffffffffffffffffffffffffffffffff\n      and\n      0xffffffffffffffffffffffffffffffffffffffff\n      and\n      dup2\n      mstore\n      0x20\n      add\n      swap1\n      dup2\n      mstore\n      0x20\n      add\n      0x00\n      keccak256\n        /* \"FundMe.sol\":929:963  fundAmount[msg.sender] = msg.value */\n      dup2\n      swap1\n      sstore\n      pop\n        /* \"FundMe.sol\":980:984  true */\n      0x01\n        /* \"FundMe.sol\":973:984  return true */\n      swap1\n      pop\n        /* \"FundMe.sol\":445:991  function fund() public payable returns (bool) {... */\n      swap1\n      jump\t// out\n        /* \"FundMe.sol\":392:438  mapping (address => uint256) public fundAmount */\n    tag_13:\n      mstore(0x20, 0x02)\n      dup1\n      0x00\n      mstore\n      keccak256(0x00, 0x40)\n      0x00\n      swap2\n      pop\n      swap1\n      pop\n      sload\n      dup2\n      jump\t// out\n        /* \"FundMe.sol\":361:385  address[] public funders */\n    tag_20:\n      0x01\n      dup2\n      dup2\n      sload\n      dup2\n      lt\n      tag_30\n      jumpi\n      0x00\n      dup1\n      revert\n    tag_30:\n      swap1\n      0x00\n      mstore\n      keccak256(0x00, 0x20)\n      add\n      0x00\n      swap2\n      pop\n      sload\n      swap1\n      0x0100\n      exp\n      swap1\n      div\n      0xffffffffffffffffffffffffffffffffffffffff\n      and\n      dup2\n      jump\t// out\n        /* \"PriceConverter.sol\":887:1477  function convertEthAmountInUSD(... */\n    tag_25:\n        /* \"PriceConverter.sol\":1007:1014  uint256 */\n      0x00\n        /* \"PriceConverter.sol\":1026:1042  uint256 ethPrice */\n      dup1\n        /* \"PriceConverter.sol\":1045:1063  getETHPriceInUSD() */\n      tag_33\n        /* \"PriceConverter.sol\":1045:1061  getETHPriceInUSD */\n      tag_34\n        /* \"PriceConverter.sol\":1045:1063  getETHPriceInUSD() */\n      jump\t// in\n    tag_33:\n        /* \"PriceConverter.sol\":1026:1063  uint256 ethPrice = getETHPriceInUSD() */\n      swap1\n      pop\n        /* \"PriceConverter.sol\":1385:1407  uint256 ethAmountInUSD */\n      0x00\n        /* \"PriceConverter.sol\":1435:1439  1e18 */\n      0x0de0b6b3a7640000\n        /* \"PriceConverter.sol\":1422:1431  ethAmount */\n      dup5\n        /* \"PriceConverter.sol\":1411:1419  ethPrice */\n      dup4\n        /* \"PriceConverter.sol\":1411:1431  ethPrice * ethAmount */\n      tag_35\n      swap2\n      swap1\n      tag_36\n      jump\t// in\n    tag_35:\n        /* \"PriceConverter.sol\":1410:1439  (ethPrice * ethAmount) / 1e18 */\n      tag_37\n      swap2\n      swap1\n      tag_38\n      jump\t// in\n    tag_37:\n        /* \"PriceConverter.sol\":1385:1439  uint256 ethAmountInUSD = (ethPrice * ethAmount) / 1e18 */\n      swap1\n      pop\n        /* \"PriceConverter.sol\":1456:1470  ethAmountInUSD */\n      dup1\n        /* \"PriceConverter.sol\":1449:1470  return ethAmountInUSD */\n      swap3\n      pop\n      pop\n      pop\n        /* \"PriceConverter.sol\":887:1477  function convertEthAmountInUSD(... */\n      swap2\n      swap1\n      pop\n      jump\t// out\n        /* \"PriceConverter.sol\":230:881  function getETHPriceInUSD() internal view returns (uint256) {... */\n    tag_34:\n        /* \"PriceConverter.sol\":281:288  uint256 */\n      0x00\n        /* \"PriceConverter.sol\":377:408  AggregatorV3Interface pricefeed */\n      dup1\n        /* \"PriceConverter.sol\":446:488  0xD4a33860578De61DBAbDc8BFdb98FD742fA7028e */\n      0xd4a33860578de61dbabdc8bfdb98fd742fa7028e\n        /* \"PriceConverter.sol\":377:498  AggregatorV3Interface pricefeed = AggregatorV3Interface(... */\n      swap1\n      pop\n        /* \"PriceConverter.sol\":552:569  int256 priceInUSD */\n      0x00\n        /* \"PriceConverter.sol\":579:588  pricefeed */\n      dup2\n        /* \"PriceConverter.sol\":579:604  pricefeed.latestRoundData */\n      0xffffffffffffffffffffffffffffffffffffffff\n      and\n      0xfeaf968c\n        /* \"PriceConverter.sol\":579:606  pricefeed.latestRoundData() */\n      mload(0x40)\n      dup2\n      0xffffffff\n      and\n      0xe0\n      shl\n      dup2\n      mstore\n      0x04\n      add\n      0xa0\n      mload(0x40)\n      dup1\n      dup4\n      sub\n      dup2\n      dup7\n      dup1\n      extcodesize\n      iszero\n      dup1\n      iszero\n      tag_40\n      jumpi\n      0x00\n      dup1\n      revert\n    tag_40:\n      pop\n      gas\n      staticcall\n      iszero\n      dup1\n      iszero\n      tag_42\n      jumpi\n      returndatasize\n      0x00\n      dup1\n      returndatacopy\n      revert(0x00, returndatasize)\n    tag_42:\n      pop\n      pop\n      pop\n      pop\n      mload(0x40)\n      returndatasize\n      not(0x1f)\n      0x1f\n      dup3\n      add\n      and\n      dup3\n      add\n      dup1\n      0x40\n      mstore\n      pop\n      dup2\n      add\n      swap1\n      tag_43\n      swap2\n      swap1\n      tag_44\n      jump\t// in\n    tag_43:\n        /* \"PriceConverter.sol\":549:606  (, int256 priceInUSD, , , ) = pricefeed.latestRoundData() */\n      pop\n      pop\n      pop\n      swap2\n      pop\n      pop\n        /* \"PriceConverter.sol\":848:852  1e10 */\n      0x02540be400\n        /* \"PriceConverter.sol\":835:845  priceInUSD */\n      dup2\n        /* \"PriceConverter.sol\":835:852  priceInUSD * 1e10 */\n      tag_45\n      swap2\n      swap1\n      tag_46\n      jump\t// in\n    tag_45:\n        /* \"PriceConverter.sol\":820:853  return uint256(priceInUSD * 1e10) */\n      swap3\n      pop\n      pop\n      pop\n        /* \"PriceConverter.sol\":230:881  function getETHPriceInUSD() internal view returns (uint256) {... */\n      swap1\n      jump\t// out\n        /* \"#utility.yul\":7:97   */\n    tag_47:\n        /* \"#utility.yul\":41:48   */\n      0x00\n        /* \"#utility.yul\":84:89   */\n      dup2\n        /* \"#utility.yul\":77:90   */\n      iszero\n        /* \"#utility.yul\":70:91   */\n      iszero\n        /* \"#utility.yul\":59:91   */\n      swap1\n      pop\n        /* \"#utility.yul\":7:97   */\n      swap2\n      swap1\n      pop\n      jump\t// out\n        /* \"#utility.yul\":103:212   */\n    tag_48:\n        /* \"#utility.yul\":184:205   */\n      tag_76\n        /* \"#utility.yul\":199:204   */\n      dup2\n        /* \"#utility.yul\":184:205   */\n      tag_47\n      jump\t// in\n    tag_76:\n        /* \"#utility.yul\":179:182   */\n      dup3\n        /* \"#utility.yul\":172:206   */\n      mstore\n        /* \"#utility.yul\":103:212   */\n      pop\n      pop\n      jump\t// out\n        /* \"#utility.yul\":218:428   */\n    tag_8:\n        /* \"#utility.yul\":305:309   */\n      0x00\n        /* \"#utility.yul\":343:345   */\n      0x20\n        /* \"#utility.yul\":332:341   */\n      dup3\n        /* \"#utility.yul\":328:346   */\n      add\n        /* \"#utility.yul\":320:346   */\n      swap1\n      pop\n        /* \"#utility.yul\":356:421   */\n      tag_78\n        /* \"#utility.yul\":418:419   */\n      0x00\n        /* \"#utility.yul\":407:416   */\n      dup4\n        /* \"#utility.yul\":403:420   */\n      add\n        /* \"#utility.yul\":394:400   */\n      dup5\n        /* \"#utility.yul\":356:421   */\n      tag_48\n      jump\t// in\n    tag_78:\n        /* \"#utility.yul\":218:428   */\n      swap3\n      swap2\n      pop\n      pop\n      jump\t// out\n        /* \"#utility.yul\":515:632   */\n    tag_50:\n        /* \"#utility.yul\":624:625   */\n      0x00\n        /* \"#utility.yul\":621:622   */\n      dup1\n        /* \"#utility.yul\":614:626   */\n      revert\n        /* \"#utility.yul\":761:887   */\n    tag_52:\n        /* \"#utility.yul\":798:805   */\n      0x00\n        /* \"#utility.yul\":838:880   */\n      0xffffffffffffffffffffffffffffffffffffffff\n        /* \"#utility.yul\":831:836   */\n      dup3\n        /* \"#utility.yul\":827:881   */\n      and\n        /* \"#utility.yul\":816:881   */\n      swap1\n      pop\n        /* \"#utility.yul\":761:887   */\n      swap2\n      swap1\n      pop\n      jump\t// out\n        /* \"#utility.yul\":893:989   */\n    tag_53:\n        /* \"#utility.yul\":930:937   */\n      0x00\n        /* \"#utility.yul\":959:983   */\n      tag_84\n        /* \"#utility.yul\":977:982   */\n      dup3\n        /* \"#utility.yul\":959:983   */\n      tag_52\n      jump\t// in\n    tag_84:\n        /* \"#utility.yul\":948:983   */\n      swap1\n      pop\n        /* \"#utility.yul\":893:989   */\n      swap2\n      swap1\n      pop\n      jump\t// out\n        /* \"#utility.yul\":995:1117   */\n    tag_54:\n        /* \"#utility.yul\":1068:1092   */\n      tag_86\n        /* \"#utility.yul\":1086:1091   */\n      dup2\n        /* \"#utility.yul\":1068:1092   */\n      tag_53\n      jump\t// in\n    tag_86:\n        /* \"#utility.yul\":1061:1066   */\n      dup2\n        /* \"#utility.yul\":1058:1093   */\n      eq\n        /* \"#utility.yul\":1048:1111   */\n      tag_87\n      jumpi\n        /* \"#utility.yul\":1107:1108   */\n      0x00\n        /* \"#utility.yul\":1104:1105   */\n      dup1\n        /* \"#utility.yul\":1097:1109   */\n      revert\n        /* \"#utility.yul\":1048:1111   */\n    tag_87:\n        /* \"#utility.yul\":995:1117   */\n      pop\n      jump\t// out\n        /* \"#utility.yul\":1123:1262   */\n    tag_55:\n        /* \"#utility.yul\":1169:1174   */\n      0x00\n        /* \"#utility.yul\":1207:1213   */\n      dup2\n        /* \"#utility.yul\":1194:1214   */\n      calldataload\n        /* \"#utility.yul\":1185:1214   */\n      swap1\n      pop\n        /* \"#utility.yul\":1223:1256   */\n      tag_89\n        /* \"#utility.yul\":1250:1255   */\n      dup2\n        /* \"#utility.yul\":1223:1256   */\n      tag_54\n      jump\t// in\n    tag_89:\n        /* \"#utility.yul\":1123:1262   */\n      swap3\n      swap2\n      pop\n      pop\n      jump\t// out\n        /* \"#utility.yul\":1268:1597   */\n    tag_12:\n        /* \"#utility.yul\":1327:1333   */\n      0x00\n        /* \"#utility.yul\":1376:1378   */\n      0x20\n        /* \"#utility.yul\":1364:1373   */\n      dup3\n        /* \"#utility.yul\":1355:1362   */\n      dup5\n        /* \"#utility.yul\":1351:1374   */\n      sub\n        /* \"#utility.yul\":1347:1379   */\n      slt\n        /* \"#utility.yul\":1344:1463   */\n      iszero\n      tag_91\n      jumpi\n        /* \"#utility.yul\":1382:1461   */\n      tag_92\n      tag_50\n      jump\t// in\n    tag_92:\n        /* \"#utility.yul\":1344:1463   */\n    tag_91:\n        /* \"#utility.yul\":1502:1503   */\n      0x00\n        /* \"#utility.yul\":1527:1580   */\n      tag_93\n        /* \"#utility.yul\":1572:1579   */\n      dup5\n        /* \"#utility.yul\":1563:1569   */\n      dup3\n        /* \"#utility.yul\":1552:1561   */\n      dup6\n        /* \"#utility.yul\":1548:1570   */\n      add\n        /* \"#utility.yul\":1527:1580   */\n      tag_55\n      jump\t// in\n    tag_93:\n        /* \"#utility.yul\":1517:1580   */\n      swap2\n      pop\n        /* \"#utility.yul\":1473:1590   */\n      pop\n        /* \"#utility.yul\":1268:1597   */\n      swap3\n      swap2\n      pop\n      pop\n      jump\t// out\n        /* \"#utility.yul\":1603:1680   */\n    tag_56:\n        /* \"#utility.yul\":1640:1647   */\n      0x00\n        /* \"#utility.yul\":1669:1674   */\n      dup2\n        /* \"#utility.yul\":1658:1674   */\n      swap1\n      pop\n        /* \"#utility.yul\":1603:1680   */\n      swap2\n      swap1\n      pop\n      jump\t// out\n        /* \"#utility.yul\":1686:1804   */\n    tag_57:\n        /* \"#utility.yul\":1773:1797   */\n      tag_96\n        /* \"#utility.yul\":1791:1796   */\n      dup2\n        /* \"#utility.yul\":1773:1797   */\n      tag_56\n      jump\t// in\n    tag_96:\n        /* \"#utility.yul\":1768:1771   */\n      dup3\n        /* \"#utility.yul\":1761:1798   */\n      mstore\n        /* \"#utility.yul\":1686:1804   */\n      pop\n      pop\n      jump\t// out\n        /* \"#utility.yul\":1810:2032   */\n    tag_15:\n        /* \"#utility.yul\":1903:1907   */\n      0x00\n        /* \"#utility.yul\":1941:1943   */\n      0x20\n        /* \"#utility.yul\":1930:1939   */\n      dup3\n        /* \"#utility.yul\":1926:1944   */\n      add\n        /* \"#utility.yul\":1918:1944   */\n      swap1\n      pop\n        /* \"#utility.yul\":1954:2025   */\n      tag_98\n        /* \"#utility.yul\":2022:2023   */\n      0x00\n        /* \"#utility.yul\":2011:2020   */\n      dup4\n        /* \"#utility.yul\":2007:2024   */\n      add\n        /* \"#utility.yul\":1998:2004   */\n      dup5\n        /* \"#utility.yul\":1954:2025   */\n      tag_57\n      jump\t// in\n    tag_98:\n        /* \"#utility.yul\":1810:2032   */\n      swap3\n      swap2\n      pop\n      pop\n      jump\t// out\n        /* \"#utility.yul\":2038:2160   */\n    tag_58:\n        /* \"#utility.yul\":2111:2135   */\n      tag_100\n        /* \"#utility.yul\":2129:2134   */\n      dup2\n        /* \"#utility.yul\":2111:2135   */\n      tag_56\n      jump\t// in\n    tag_100:\n        /* \"#utility.yul\":2104:2109   */\n      dup2\n        /* \"#utility.yul\":2101:2136   */\n      eq\n        /* \"#utility.yul\":2091:2154   */\n      tag_101\n      jumpi\n        /* \"#utility.yul\":2150:2151   */\n      0x00\n        /* \"#utility.yul\":2147:2148   */\n      dup1\n        /* \"#utility.yul\":2140:2152   */\n      revert\n        /* \"#utility.yul\":2091:2154   */\n    tag_101:\n        /* \"#utility.yul\":2038:2160   */\n      pop\n      jump\t// out\n        /* \"#utility.yul\":2166:2305   */\n    tag_59:\n        /* \"#utility.yul\":2212:2217   */\n      0x00\n        /* \"#utility.yul\":2250:2256   */\n      dup2\n        /* \"#utility.yul\":2237:2257   */\n      calldataload\n        /* \"#utility.yul\":2228:2257   */\n      swap1\n      pop\n        /* \"#utility.yul\":2266:2299   */\n      tag_103\n        /* \"#utility.yul\":2293:2298   */\n      dup2\n        /* \"#utility.yul\":2266:2299   */\n      tag_58\n      jump\t// in\n    tag_103:\n        /* \"#utility.yul\":2166:2305   */\n      swap3\n      swap2\n      pop\n      pop\n      jump\t// out\n        /* \"#utility.yul\":2311:2640   */\n    tag_19:\n        /* \"#utility.yul\":2370:2376   */\n      0x00\n        /* \"#utility.yul\":2419:2421   */\n      0x20\n        /* \"#utility.yul\":2407:2416   */\n      dup3\n        /* \"#utility.yul\":2398:2405   */\n      dup5\n        /* \"#utility.yul\":2394:2417   */\n      sub\n        /* \"#utility.yul\":2390:2422   */\n      slt\n        /* \"#utility.yul\":2387:2506   */\n      iszero\n      tag_105\n      jumpi\n        /* \"#utility.yul\":2425:2504   */\n      tag_106\n      tag_50\n      jump\t// in\n    tag_106:\n        /* \"#utility.yul\":2387:2506   */\n    tag_105:\n        /* \"#utility.yul\":2545:2546   */\n      0x00\n        /* \"#utility.yul\":2570:2623   */\n      tag_107\n        /* \"#utility.yul\":2615:2622   */\n      dup5\n        /* \"#utility.yul\":2606:2612   */\n      dup3\n        /* \"#utility.yul\":2595:2604   */\n      dup6\n        /* \"#utility.yul\":2591:2613   */\n      add\n        /* \"#utility.yul\":2570:2623   */\n      tag_59\n      jump\t// in\n    tag_107:\n        /* \"#utility.yul\":2560:2623   */\n      swap2\n      pop\n        /* \"#utility.yul\":2516:2633   */\n      pop\n        /* \"#utility.yul\":2311:2640   */\n      swap3\n      swap2\n      pop\n      pop\n      jump\t// out\n        /* \"#utility.yul\":2646:2764   */\n    tag_60:\n        /* \"#utility.yul\":2733:2757   */\n      tag_109\n        /* \"#utility.yul\":2751:2756   */\n      dup2\n        /* \"#utility.yul\":2733:2757   */\n      tag_53\n      jump\t// in\n    tag_109:\n        /* \"#utility.yul\":2728:2731   */\n      dup3\n        /* \"#utility.yul\":2721:2758   */\n      mstore\n        /* \"#utility.yul\":2646:2764   */\n      pop\n      pop\n      jump\t// out\n        /* \"#utility.yul\":2770:2992   */\n    tag_22:\n        /* \"#utility.yul\":2863:2867   */\n      0x00\n        /* \"#utility.yul\":2901:2903   */\n      0x20\n        /* \"#utility.yul\":2890:2899   */\n      dup3\n        /* \"#utility.yul\":2886:2904   */\n      add\n        /* \"#utility.yul\":2878:2904   */\n      swap1\n      pop\n        /* \"#utility.yul\":2914:2985   */\n      tag_111\n        /* \"#utility.yul\":2982:2983   */\n      0x00\n        /* \"#utility.yul\":2971:2980   */\n      dup4\n        /* \"#utility.yul\":2967:2984   */\n      add\n        /* \"#utility.yul\":2958:2964   */\n      dup5\n        /* \"#utility.yul\":2914:2985   */\n      tag_60\n      jump\t// in\n    tag_111:\n        /* \"#utility.yul\":2770:2992   */\n      swap3\n      swap2\n      pop\n      pop\n      jump\t// out\n        /* \"#utility.yul\":2998:3167   */\n    tag_61:\n        /* \"#utility.yul\":3082:3093   */\n      0x00\n        /* \"#utility.yul\":3116:3122   */\n      dup3\n        /* \"#utility.yul\":3111:3114   */\n      dup3\n        /* \"#utility.yul\":3104:3123   */\n      mstore\n        /* \"#utility.yul\":3156:3160   */\n      0x20\n        /* \"#utility.yul\":3151:3154   */\n      dup3\n        /* \"#utility.yul\":3147:3161   */\n      add\n        /* \"#utility.yul\":3132:3161   */\n      swap1\n      pop\n        /* \"#utility.yul\":2998:3167   */\n      swap3\n      swap2\n      pop\n      pop\n      jump\t// out\n        /* \"#utility.yul\":3173:3344   */\n    tag_62:\n        /* \"#utility.yul\":3313:3336   */\n      0x446f6e27742073656e64206d696e20616d6f756e740000000000000000000000\n        /* \"#utility.yul\":3309:3310   */\n      0x00\n        /* \"#utility.yul\":3301:3307   */\n      dup3\n        /* \"#utility.yul\":3297:3311   */\n      add\n        /* \"#utility.yul\":3290:3337   */\n      mstore\n        /* \"#utility.yul\":3173:3344   */\n      pop\n      jump\t// out\n        /* \"#utility.yul\":3350:3716   */\n    tag_63:\n        /* \"#utility.yul\":3492:3495   */\n      0x00\n        /* \"#utility.yul\":3513:3580   */\n      tag_115\n        /* \"#utility.yul\":3577:3579   */\n      0x15\n        /* \"#utility.yul\":3572:3575   */\n      dup4\n        /* \"#utility.yul\":3513:3580   */\n      tag_61\n      jump\t// in\n    tag_115:\n        /* \"#utility.yul\":3506:3580   */\n      swap2\n      pop\n        /* \"#utility.yul\":3589:3682   */\n      tag_116\n        /* \"#utility.yul\":3678:3681   */\n      dup3\n        /* \"#utility.yul\":3589:3682   */\n      tag_62\n      jump\t// in\n    tag_116:\n        /* \"#utility.yul\":3707:3709   */\n      0x20\n        /* \"#utility.yul\":3702:3705   */\n      dup3\n        /* \"#utility.yul\":3698:3710   */\n      add\n        /* \"#utility.yul\":3691:3710   */\n      swap1\n      pop\n        /* \"#utility.yul\":3350:3716   */\n      swap2\n      swap1\n      pop\n      jump\t// out\n        /* \"#utility.yul\":3722:4141   */\n    tag_28:\n        /* \"#utility.yul\":3888:3892   */\n      0x00\n        /* \"#utility.yul\":3926:3928   */\n      0x20\n        /* \"#utility.yul\":3915:3924   */\n      dup3\n        /* \"#utility.yul\":3911:3929   */\n      add\n        /* \"#utility.yul\":3903:3929   */\n      swap1\n      pop\n        /* \"#utility.yul\":3975:3984   */\n      dup2\n        /* \"#utility.yul\":3969:3973   */\n      dup2\n        /* \"#utility.yul\":3965:3985   */\n      sub\n        /* \"#utility.yul\":3961:3962   */\n      0x00\n        /* \"#utility.yul\":3950:3959   */\n      dup4\n        /* \"#utility.yul\":3946:3963   */\n      add\n        /* \"#utility.yul\":3939:3986   */\n      mstore\n        /* \"#utility.yul\":4003:4134   */\n      tag_118\n        /* \"#utility.yul\":4129:4133   */\n      dup2\n        /* \"#utility.yul\":4003:4134   */\n      tag_63\n      jump\t// in\n    tag_118:\n        /* \"#utility.yul\":3995:4134   */\n      swap1\n      pop\n        /* \"#utility.yul\":3722:4141   */\n      swap2\n      swap1\n      pop\n      jump\t// out\n        /* \"#utility.yul\":4147:4327   */\n    tag_64:\n        /* \"#utility.yul\":4195:4272   */\n      0x4e487b7100000000000000000000000000000000000000000000000000000000\n        /* \"#utility.yul\":4192:4193   */\n      0x00\n        /* \"#utility.yul\":4185:4273   */\n      mstore\n        /* \"#utility.yul\":4292:4296   */\n      0x11\n        /* \"#utility.yul\":4289:4290   */\n      0x04\n        /* \"#utility.yul\":4282:4297   */\n      mstore\n        /* \"#utility.yul\":4316:4320   */\n      0x24\n        /* \"#utility.yul\":4313:4314   */\n      0x00\n        /* \"#utility.yul\":4306:4321   */\n      revert\n        /* \"#utility.yul\":4333:4681   */\n    tag_36:\n        /* \"#utility.yul\":4373:4380   */\n      0x00\n        /* \"#utility.yul\":4396:4416   */\n      tag_121\n        /* \"#utility.yul\":4414:4415   */\n      dup3\n        /* \"#utility.yul\":4396:4416   */\n      tag_56\n      jump\t// in\n    tag_121:\n        /* \"#utility.yul\":4391:4416   */\n      swap2\n      pop\n        /* \"#utility.yul\":4430:4450   */\n      tag_122\n        /* \"#utility.yul\":4448:4449   */\n      dup4\n        /* \"#utility.yul\":4430:4450   */\n      tag_56\n      jump\t// in\n    tag_122:\n        /* \"#utility.yul\":4425:4450   */\n      swap3\n      pop\n        /* \"#utility.yul\":4618:4619   */\n      dup2\n        /* \"#utility.yul\":4550:4616   */\n      0xffffffffffffffffffffffffffffffffffffffffffffffffffffffffffffffff\n        /* \"#utility.yul\":4546:4620   */\n      div\n        /* \"#utility.yul\":4543:4544   */\n      dup4\n        /* \"#utility.yul\":4540:4621   */\n      gt\n        /* \"#utility.yul\":4535:4536   */\n      dup3\n        /* \"#utility.yul\":4528:4537   */\n      iszero\n        /* \"#utility.yul\":4521:4538   */\n      iszero\n        /* \"#utility.yul\":4517:4622   */\n      and\n        /* \"#utility.yul\":4514:4645   */\n      iszero\n      tag_123\n      jumpi\n        /* \"#utility.yul\":4625:4643   */\n      tag_124\n      tag_64\n      jump\t// in\n    tag_124:\n        /* \"#utility.yul\":4514:4645   */\n    tag_123:\n        /* \"#utility.yul\":4673:4674   */\n      dup3\n        /* \"#utility.yul\":4670:4671   */\n      dup3\n        /* \"#utility.yul\":4666:4675   */\n      mul\n        /* \"#utility.yul\":4655:4675   */\n      swap1\n      pop\n        /* \"#utility.yul\":4333:4681   */\n      swap3\n      swap2\n      pop\n      pop\n      jump\t// out\n        /* \"#utility.yul\":4687:4867   */\n    tag_65:\n        /* \"#utility.yul\":4735:4812   */\n      0x4e487b7100000000000000000000000000000000000000000000000000000000\n        /* \"#utility.yul\":4732:4733   */\n      0x00\n        /* \"#utility.yul\":4725:4813   */\n      mstore\n        /* \"#utility.yul\":4832:4836   */\n      0x12\n        /* \"#utility.yul\":4829:4830   */\n      0x04\n        /* \"#utility.yul\":4822:4837   */\n      mstore\n        /* \"#utility.yul\":4856:4860   */\n      0x24\n        /* \"#utility.yul\":4853:4854   */\n      0x00\n        /* \"#utility.yul\":4846:4861   */\n      revert\n        /* \"#utility.yul\":4873:5058   */\n    tag_38:\n        /* \"#utility.yul\":4913:4914   */\n      0x00\n        /* \"#utility.yul\":4930:4950   */\n      tag_127\n        /* \"#utility.yul\":4948:4949   */\n      dup3\n        /* \"#utility.yul\":4930:4950   */\n      tag_56\n      jump\t// in\n    tag_127:\n        /* \"#utility.yul\":4925:4950   */\n      swap2\n      pop\n        /* \"#utility.yul\":4964:4984   */\n      tag_128\n        /* \"#utility.yul\":4982:4983   */\n      dup4\n        /* \"#utility.yul\":4964:4984   */\n      tag_56\n      jump\t// in\n    tag_128:\n        /* \"#utility.yul\":4959:4984   */\n      swap3\n      pop\n        /* \"#utility.yul\":5003:5004   */\n      dup3\n        /* \"#utility.yul\":4993:5028   */\n      tag_129\n      jumpi\n        /* \"#utility.yul\":5008:5026   */\n      tag_130\n      tag_65\n      jump\t// in\n    tag_130:\n        /* \"#utility.yul\":4993:5028   */\n    tag_129:\n        /* \"#utility.yul\":5050:5051   */\n      dup3\n        /* \"#utility.yul\":5047:5048   */\n      dup3\n        /* \"#utility.yul\":5043:5052   */\n      div\n        /* \"#utility.yul\":5038:5052   */\n      swap1\n      pop\n        /* \"#utility.yul\":4873:5058   */\n      swap3\n      swap2\n      pop\n      pop\n      jump\t// out\n        /* \"#utility.yul\":5064:5169   */\n    tag_66:\n        /* \"#utility.yul\":5100:5107   */\n      0x00\n        /* \"#utility.yul\":5140:5162   */\n      0xffffffffffffffffffff\n        /* \"#utility.yul\":5133:5138   */\n      dup3\n        /* \"#utility.yul\":5129:5163   */\n      and\n        /* \"#utility.yul\":5118:5163   */\n      swap1\n      pop\n        /* \"#utility.yul\":5064:5169   */\n      swap2\n      swap1\n      pop\n      jump\t// out\n        /* \"#utility.yul\":5175:5295   */\n    tag_67:\n        /* \"#utility.yul\":5247:5270   */\n      tag_133\n        /* \"#utility.yul\":5264:5269   */\n      dup2\n        /* \"#utility.yul\":5247:5270   */\n      tag_66\n      jump\t// in\n    tag_133:\n        /* \"#utility.yul\":5240:5245   */\n      dup2\n        /* \"#utility.yul\":5237:5271   */\n      eq\n        /* \"#utility.yul\":5227:5289   */\n      tag_134\n      jumpi\n        /* \"#utility.yul\":5285:5286   */\n      0x00\n        /* \"#utility.yul\":5282:5283   */\n      dup1\n        /* \"#utility.yul\":5275:5287   */\n      revert\n        /* \"#utility.yul\":5227:5289   */\n    tag_134:\n        /* \"#utility.yul\":5175:5295   */\n      pop\n      jump\t// out\n        /* \"#utility.yul\":5301:5442   */\n    tag_68:\n        /* \"#utility.yul\":5357:5362   */\n      0x00\n        /* \"#utility.yul\":5388:5394   */\n      dup2\n        /* \"#utility.yul\":5382:5395   */\n      mload\n        /* \"#utility.yul\":5373:5395   */\n      swap1\n      pop\n        /* \"#utility.yul\":5404:5436   */\n      tag_136\n        /* \"#utility.yul\":5430:5435   */\n      dup2\n        /* \"#utility.yul\":5404:5436   */\n      tag_67\n      jump\t// in\n    tag_136:\n        /* \"#utility.yul\":5301:5442   */\n      swap3\n      swap2\n      pop\n      pop\n      jump\t// out\n        /* \"#utility.yul\":5448:5524   */\n    tag_69:\n        /* \"#utility.yul\":5484:5491   */\n      0x00\n        /* \"#utility.yul\":5513:5518   */\n      dup2\n        /* \"#utility.yul\":5502:5518   */\n      swap1\n      pop\n        /* \"#utility.yul\":5448:5524   */\n      swap2\n      swap1\n      pop\n      jump\t// out\n        /* \"#utility.yul\":5530:5650   */\n    tag_70:\n        /* \"#utility.yul\":5602:5625   */\n      tag_139\n        /* \"#utility.yul\":5619:5624   */\n      dup2\n        /* \"#utility.yul\":5602:5625   */\n      tag_69\n      jump\t// in\n    tag_139:\n        /* \"#utility.yul\":5595:5600   */\n      dup2\n        /* \"#utility.yul\":5592:5626   */\n      eq\n        /* \"#utility.yul\":5582:5644   */\n      tag_140\n      jumpi\n        /* \"#utility.yul\":5640:5641   */\n      0x00\n        /* \"#utility.yul\":5637:5638   */\n      dup1\n        /* \"#utility.yul\":5630:5642   */\n      revert\n        /* \"#utility.yul\":5582:5644   */\n    tag_140:\n        /* \"#utility.yul\":5530:5650   */\n      pop\n      jump\t// out\n        /* \"#utility.yul\":5656:5797   */\n    tag_71:\n        /* \"#utility.yul\":5712:5717   */\n      0x00\n        /* \"#utility.yul\":5743:5749   */\n      dup2\n        /* \"#utility.yul\":5737:5750   */\n      mload\n        /* \"#utility.yul\":5728:5750   */\n      swap1\n      pop\n        /* \"#utility.yul\":5759:5791   */\n      tag_142\n        /* \"#utility.yul\":5785:5790   */\n      dup2\n        /* \"#utility.yul\":5759:5791   */\n      tag_70\n      jump\t// in\n    tag_142:\n        /* \"#utility.yul\":5656:5797   */\n      swap3\n      swap2\n      pop\n      pop\n      jump\t// out\n        /* \"#utility.yul\":5803:5946   */\n    tag_72:\n        /* \"#utility.yul\":5860:5865   */\n      0x00\n        /* \"#utility.yul\":5891:5897   */\n      dup2\n        /* \"#utility.yul\":5885:5898   */\n      mload\n        /* \"#utility.yul\":5876:5898   */\n      swap1\n      pop\n        /* \"#utility.yul\":5907:5940   */\n      tag_144\n        /* \"#utility.yul\":5934:5939   */\n      dup2\n        /* \"#utility.yul\":5907:5940   */\n      tag_58\n      jump\t// in\n    tag_144:\n        /* \"#utility.yul\":5803:5946   */\n      swap3\n      swap2\n      pop\n      pop\n      jump\t// out\n        /* \"#utility.yul\":5952:6923   */\n    tag_44:\n        /* \"#utility.yul\":6055:6061   */\n      0x00\n        /* \"#utility.yul\":6063:6069   */\n      dup1\n        /* \"#utility.yul\":6071:6077   */\n      0x00\n        /* \"#utility.yul\":6079:6085   */\n      dup1\n        /* \"#utility.yul\":6087:6093   */\n      0x00\n        /* \"#utility.yul\":6136:6139   */\n      0xa0\n        /* \"#utility.yul\":6124:6133   */\n      dup7\n        /* \"#utility.yul\":6115:6122   */\n      dup9\n        /* \"#utility.yul\":6111:6134   */\n      sub\n        /* \"#utility.yul\":6107:6140   */\n      slt\n        /* \"#utility.yul\":6104:6224   */\n      iszero\n      tag_146\n      jumpi\n        /* \"#utility.yul\":6143:6222   */\n      tag_147\n      tag_50\n      jump\t// in\n    tag_147:\n        /* \"#utility.yul\":6104:6224   */\n    tag_146:\n        /* \"#utility.yul\":6263:6264   */\n      0x00\n        /* \"#utility.yul\":6288:6351   */\n      tag_148\n        /* \"#utility.yul\":6343:6350   */\n      dup9\n        /* \"#utility.yul\":6334:6340   */\n      dup3\n        /* \"#utility.yul\":6323:6332   */\n      dup10\n        /* \"#utility.yul\":6319:6341   */\n      add\n        /* \"#utility.yul\":6288:6351   */\n      tag_68\n      jump\t// in\n    tag_148:\n        /* \"#utility.yul\":6278:6351   */\n      swap6\n      pop\n        /* \"#utility.yul\":6234:6361   */\n      pop\n        /* \"#utility.yul\":6400:6402   */\n      0x20\n        /* \"#utility.yul\":6426:6489   */\n      tag_149\n        /* \"#utility.yul\":6481:6488   */\n      dup9\n        /* \"#utility.yul\":6472:6478   */\n      dup3\n        /* \"#utility.yul\":6461:6470   */\n      dup10\n        /* \"#utility.yul\":6457:6479   */\n      add\n        /* \"#utility.yul\":6426:6489   */\n      tag_71\n      jump\t// in\n    tag_149:\n        /* \"#utility.yul\":6416:6489   */\n      swap5\n      pop\n        /* \"#utility.yul\":6371:6499   */\n      pop\n        /* \"#utility.yul\":6538:6540   */\n      0x40\n        /* \"#utility.yul\":6564:6628   */\n      tag_150\n        /* \"#utility.yul\":6620:6627   */\n      dup9\n        /* \"#utility.yul\":6611:6617   */\n      dup3\n        /* \"#utility.yul\":6600:6609   */\n      dup10\n        /* \"#utility.yul\":6596:6618   */\n      add\n        /* \"#utility.yul\":6564:6628   */\n      tag_72\n      jump\t// in\n    tag_150:\n        /* \"#utility.yul\":6554:6628   */\n      swap4\n      pop\n        /* \"#utility.yul\":6509:6638   */\n      pop\n        /* \"#utility.yul\":6677:6679   */\n      0x60\n        /* \"#utility.yul\":6703:6767   */\n      tag_151\n        /* \"#utility.yul\":6759:6766   */\n      dup9\n        /* \"#utility.yul\":6750:6756   */\n      dup3\n        /* \"#utility.yul\":6739:6748   */\n      dup10\n        /* \"#utility.yul\":6735:6757   */\n      add\n        /* \"#utility.yul\":6703:6767   */\n      tag_72\n      jump\t// in\n    tag_151:\n        /* \"#utility.yul\":6693:6767   */\n      swap3\n      pop\n        /* \"#utility.yul\":6648:6777   */\n      pop\n        /* \"#utility.yul\":6816:6819   */\n      0x80\n        /* \"#utility.yul\":6843:6906   */\n      tag_152\n        /* \"#utility.yul\":6898:6905   */\n      dup9\n        /* \"#utility.yul\":6889:6895   */\n      dup3\n        /* \"#utility.yul\":6878:6887   */\n      dup10\n        /* \"#utility.yul\":6874:6896   */\n      add\n        /* \"#utility.yul\":6843:6906   */\n      tag_68\n      jump\t// in\n    tag_152:\n        /* \"#utility.yul\":6833:6906   */\n      swap2\n      pop\n        /* \"#utility.yul\":6787:6916   */\n      pop\n        /* \"#utility.yul\":5952:6923   */\n      swap3\n      swap6\n      pop\n      swap3\n      swap6\n      swap1\n      swap4\n      pop\n      jump\t// out\n        /* \"#utility.yul\":6929:7920   */\n    tag_46:\n        /* \"#utility.yul\":6968:6975   */\n      0x00\n        /* \"#utility.yul\":6991:7010   */\n      tag_154\n        /* \"#utility.yul\":7008:7009   */\n      dup3\n        /* \"#utility.yul\":6991:7010   */\n      tag_69\n      jump\t// in\n    tag_154:\n        /* \"#utility.yul\":6986:7010   */\n      swap2\n      pop\n        /* \"#utility.yul\":7024:7043   */\n      tag_155\n        /* \"#utility.yul\":7041:7042   */\n      dup4\n        /* \"#utility.yul\":7024:7043   */\n      tag_69\n      jump\t// in\n    tag_155:\n        /* \"#utility.yul\":7019:7043   */\n      swap3\n      pop\n        /* \"#utility.yul\":7225:7226   */\n      dup3\n        /* \"#utility.yul\":7157:7223   */\n      0x7fffffffffffffffffffffffffffffffffffffffffffffffffffffffffffffff\n        /* \"#utility.yul\":7153:7227   */\n      div\n        /* \"#utility.yul\":7150:7151   */\n      dup3\n        /* \"#utility.yul\":7147:7228   */\n      gt\n        /* \"#utility.yul\":7142:7143   */\n      0x00\n        /* \"#utility.yul\":7139:7140   */\n      dup5\n        /* \"#utility.yul\":7135:7144   */\n      sgt\n        /* \"#utility.yul\":7131:7132   */\n      0x00\n        /* \"#utility.yul\":7128:7129   */\n      dup5\n        /* \"#utility.yul\":7124:7133   */\n      sgt\n        /* \"#utility.yul\":7120:7145   */\n      and\n        /* \"#utility.yul\":7116:7229   */\n      and\n        /* \"#utility.yul\":7113:7252   */\n      iszero\n      tag_156\n      jumpi\n        /* \"#utility.yul\":7232:7250   */\n      tag_157\n      tag_64\n      jump\t// in\n    tag_157:\n        /* \"#utility.yul\":7113:7252   */\n    tag_156:\n        /* \"#utility.yul\":7436:7437   */\n      dup2\n        /* \"#utility.yul\":7368:7434   */\n      0x8000000000000000000000000000000000000000000000000000000000000000\n        /* \"#utility.yul\":7363:7438   */\n      sdiv\n        /* \"#utility.yul\":7360:7361   */\n      dup4\n        /* \"#utility.yul\":7356:7439   */\n      slt\n        /* \"#utility.yul\":7351:7352   */\n      0x00\n        /* \"#utility.yul\":7348:7349   */\n      dup5\n        /* \"#utility.yul\":7344:7353   */\n      slt\n        /* \"#utility.yul\":7340:7341   */\n      0x00\n        /* \"#utility.yul\":7337:7338   */\n      dup5\n        /* \"#utility.yul\":7333:7342   */\n      sgt\n        /* \"#utility.yul\":7329:7354   */\n      and\n        /* \"#utility.yul\":7325:7440   */\n      and\n        /* \"#utility.yul\":7322:7463   */\n      iszero\n      tag_158\n      jumpi\n        /* \"#utility.yul\":7443:7461   */\n      tag_159\n      tag_64\n      jump\t// in\n    tag_159:\n        /* \"#utility.yul\":7322:7463   */\n    tag_158:\n        /* \"#utility.yul\":7647:7648   */\n      dup3\n        /* \"#utility.yul\":7579:7645   */\n      0x8000000000000000000000000000000000000000000000000000000000000000\n        /* \"#utility.yul\":7574:7649   */\n      sdiv\n        /* \"#utility.yul\":7571:7572   */\n      dup3\n        /* \"#utility.yul\":7567:7650   */\n      slt\n        /* \"#utility.yul\":7562:7563   */\n      0x00\n        /* \"#utility.yul\":7559:7560   */\n      dup5\n        /* \"#utility.yul\":7555:7564   */\n      sgt\n        /* \"#utility.yul\":7551:7552   */\n      0x00\n        /* \"#utility.yul\":7548:7549   */\n      dup5\n        /* \"#utility.yul\":7544:7553   */\n      slt\n        /* \"#utility.yul\":7540:7565   */\n      and\n        /* \"#utility.yul\":7536:7651   */\n      and\n        /* \"#utility.yul\":7533:7674   */\n      iszero\n      tag_160\n      jumpi\n        /* \"#utility.yul\":7654:7672   */\n      tag_161\n      tag_64\n      jump\t// in\n    tag_161:\n        /* \"#utility.yul\":7533:7674   */\n    tag_160:\n        /* \"#utility.yul\":7857:7858   */\n      dup3\n        /* \"#utility.yul\":7789:7855   */\n      0x7fffffffffffffffffffffffffffffffffffffffffffffffffffffffffffffff\n        /* \"#utility.yul\":7784:7859   */\n      sdiv\n        /* \"#utility.yul\":7781:7782   */\n      dup3\n        /* \"#utility.yul\":7777:7860   */\n      slt\n        /* \"#utility.yul\":7772:7773   */\n      0x00\n        /* \"#utility.yul\":7769:7770   */\n      dup5\n        /* \"#utility.yul\":7765:7774   */\n      slt\n        /* \"#utility.yul\":7761:7762   */\n      0x00\n        /* \"#utility.yul\":7758:7759   */\n      dup5\n        /* \"#utility.yul\":7754:7763   */\n      slt\n        /* \"#utility.yul\":7750:7775   */\n      and\n        /* \"#utility.yul\":7746:7861   */\n      and\n        /* \"#utility.yul\":7743:7884   */\n      iszero\n      tag_162\n      jumpi\n        /* \"#utility.yul\":7864:7882   */\n      tag_163\n      tag_64\n      jump\t// in\n    tag_163:\n        /* \"#utility.yul\":7743:7884   */\n    tag_162:\n        /* \"#utility.yul\":7912:7913   */\n      dup3\n        /* \"#utility.yul\":7909:7910   */\n      dup3\n        /* \"#utility.yul\":7905:7914   */\n      mul\n        /* \"#utility.yul\":7894:7914   */\n      swap1\n      pop\n        /* \"#utility.yul\":6929:7920   */\n      swap3\n      swap2\n      pop\n      pop\n      jump\t// out\n\n    auxdata: 0xa26469706673582212206330a7cabe7e8547f64bb43544fd377844ec054eabf03221bbe88c32c13a987464736f6c63430008080033\n}\n",
				"bytecode": {
					"linkReferences": {},
					"object": "60806040526802b5e3af16b188000060005534801561001d57600080fd5b5061084e8061002d6000396000f3fe6080604052600436106100345760003560e01c8063b60d428814610039578063b82ffdf914610057578063dc0d3dff14610094575b600080fd5b6100416100d1565b60405161004e9190610331565b60405180910390f35b34801561006357600080fd5b5061007e600480360381019061007991906103af565b6101cd565b60405161008b91906103f5565b60405180910390f35b3480156100a057600080fd5b506100bb60048036038101906100b6919061043c565b6101e5565b6040516100c89190610478565b60405180910390f35b600080546100de34610224565b101561011f576040517f08c379a0000000000000000000000000000000000000000000000000000000008152600401610116906104f0565b60405180910390fd5b6001339080600181540180825580915050600190039060005260206000200160009091909190916101000a81548173ffffffffffffffffffffffffffffffffffffffff021916908373ffffffffffffffffffffffffffffffffffffffff16021790555034600260003373ffffffffffffffffffffffffffffffffffffffff1673ffffffffffffffffffffffffffffffffffffffff168152602001908152602001600020819055506001905090565b60026020528060005260406000206000915090505481565b600181815481106101f557600080fd5b906000526020600020016000915054906101000a900473ffffffffffffffffffffffffffffffffffffffff1681565b60008061022f61025e565b90506000670de0b6b3a76400008483610248919061053f565b61025291906105c8565b90508092505050919050565b60008073d4a33860578de61dbabdc8bfdb98fd742fa7028e905060008173ffffffffffffffffffffffffffffffffffffffff1663feaf968c6040518163ffffffff1660e01b815260040160a06040518083038186803b1580156102c057600080fd5b505afa1580156102d4573d6000803e3d6000fd5b505050506040513d601f19601f820116820180604052508101906102f89190610686565b5050509150506402540be4008161030f9190610701565b9250505090565b60008115159050919050565b61032b81610316565b82525050565b60006020820190506103466000830184610322565b92915050565b600080fd5b600073ffffffffffffffffffffffffffffffffffffffff82169050919050565b600061037c82610351565b9050919050565b61038c81610371565b811461039757600080fd5b50565b6000813590506103a981610383565b92915050565b6000602082840312156103c5576103c461034c565b5b60006103d38482850161039a565b91505092915050565b6000819050919050565b6103ef816103dc565b82525050565b600060208201905061040a60008301846103e6565b92915050565b610419816103dc565b811461042457600080fd5b50565b60008135905061043681610410565b92915050565b6000602082840312156104525761045161034c565b5b600061046084828501610427565b91505092915050565b61047281610371565b82525050565b600060208201905061048d6000830184610469565b92915050565b600082825260208201905092915050565b7f446f6e27742073656e64206d696e20616d6f756e740000000000000000000000600082015250565b60006104da601583610493565b91506104e5826104a4565b602082019050919050565b60006020820190508181036000830152610509816104cd565b9050919050565b7f4e487b7100000000000000000000000000000000000000000000000000000000600052601160045260246000fd5b600061054a826103dc565b9150610555836103dc565b9250817fffffffffffffffffffffffffffffffffffffffffffffffffffffffffffffffff048311821515161561058e5761058d610510565b5b828202905092915050565b7f4e487b7100000000000000000000000000000000000000000000000000000000600052601260045260246000fd5b60006105d3826103dc565b91506105de836103dc565b9250826105ee576105ed610599565b5b828204905092915050565b600069ffffffffffffffffffff82169050919050565b610618816105f9565b811461062357600080fd5b50565b6000815190506106358161060f565b92915050565b6000819050919050565b61064e8161063b565b811461065957600080fd5b50565b60008151905061066b81610645565b92915050565b60008151905061068081610410565b92915050565b600080600080600060a086880312156106a2576106a161034c565b5b60006106b088828901610626565b95505060206106c18882890161065c565b94505060406106d288828901610671565b93505060606106e388828901610671565b92505060806106f488828901610626565b9150509295509295909350565b600061070c8261063b565b91506107178361063b565b9250827f7fffffffffffffffffffffffffffffffffffffffffffffffffffffffffffffff048211600084136000841316161561075657610755610510565b5b817f8000000000000000000000000000000000000000000000000000000000000000058312600084126000841316161561079357610792610510565b5b827f800000000000000000000000000000000000000000000000000000000000000005821260008413600084121616156107d0576107cf610510565b5b827f7fffffffffffffffffffffffffffffffffffffffffffffffffffffffffffffff058212600084126000841216161561080d5761080c610510565b5b82820290509291505056fea26469706673582212206330a7cabe7e8547f64bb43544fd377844ec054eabf03221bbe88c32c13a987464736f6c63430008080033",
					"opcodes": "PUSH1 0x80 PUSH1 0x40 MSTORE PUSH9 0x2B5E3AF16B1880000 PUSH1 0x0 SSTORE CALLVALUE DUP1 ISZERO PUSH2 0x1D JUMPI PUSH1 0x0 DUP1 REVERT JUMPDEST POP PUSH2 0x84E DUP1 PUSH2 0x2D PUSH1 0x0 CODECOPY PUSH1 0x0 RETURN INVALID PUSH1 0x80 PUSH1 0x40 MSTORE PUSH1 0x4 CALLDATASIZE LT PUSH2 0x34 JUMPI PUSH1 0x0 CALLDATALOAD PUSH1 0xE0 SHR DUP1 PUSH4 0xB60D4288 EQ PUSH2 0x39 JUMPI DUP1 PUSH4 0xB82FFDF9 EQ PUSH2 0x57 JUMPI DUP1 PUSH4 0xDC0D3DFF EQ PUSH2 0x94 JUMPI JUMPDEST PUSH1 0x0 DUP1 REVERT JUMPDEST PUSH2 0x41 PUSH2 0xD1 JUMP JUMPDEST PUSH1 0x40 MLOAD PUSH2 0x4E SWAP2 SWAP1 PUSH2 0x331 JUMP JUMPDEST PUSH1 0x40 MLOAD DUP1 SWAP2 SUB SWAP1 RETURN JUMPDEST CALLVALUE DUP1 ISZERO PUSH2 0x63 JUMPI PUSH1 0x0 DUP1 REVERT JUMPDEST POP PUSH2 0x7E PUSH1 0x4 DUP1 CALLDATASIZE SUB DUP2 ADD SWAP1 PUSH2 0x79 SWAP2 SWAP1 PUSH2 0x3AF JUMP JUMPDEST PUSH2 0x1CD JUMP JUMPDEST PUSH1 0x40 MLOAD PUSH2 0x8B SWAP2 SWAP1 PUSH2 0x3F5 JUMP JUMPDEST PUSH1 0x40 MLOAD DUP1 SWAP2 SUB SWAP1 RETURN JUMPDEST CALLVALUE DUP1 ISZERO PUSH2 0xA0 JUMPI PUSH1 0x0 DUP1 REVERT JUMPDEST POP PUSH2 0xBB PUSH1 0x4 DUP1 CALLDATASIZE SUB DUP2 ADD SWAP1 PUSH2 0xB6 SWAP2 SWAP1 PUSH2 0x43C JUMP JUMPDEST PUSH2 0x1E5 JUMP JUMPDEST PUSH1 0x40 MLOAD PUSH2 0xC8 SWAP2 SWAP1 PUSH2 0x478 JUMP JUMPDEST PUSH1 0x40 MLOAD DUP1 SWAP2 SUB SWAP1 RETURN JUMPDEST PUSH1 0x0 DUP1 SLOAD PUSH2 0xDE CALLVALUE PUSH2 0x224 JUMP JUMPDEST LT ISZERO PUSH2 0x11F JUMPI PUSH1 0x40 MLOAD PUSH32 0x8C379A000000000000000000000000000000000000000000000000000000000 DUP2 MSTORE PUSH1 0x4 ADD PUSH2 0x116 SWAP1 PUSH2 0x4F0 JUMP JUMPDEST PUSH1 0x40 MLOAD DUP1 SWAP2 SUB SWAP1 REVERT JUMPDEST PUSH1 0x1 CALLER SWAP1 DUP1 PUSH1 0x1 DUP2 SLOAD ADD DUP1 DUP3 SSTORE DUP1 SWAP2 POP POP PUSH1 0x1 SWAP1 SUB SWAP1 PUSH1 0x0 MSTORE PUSH1 0x20 PUSH1 0x0 KECCAK256 ADD PUSH1 0x0 SWAP1 SWAP2 SWAP1 SWAP2 SWAP1 SWAP2 PUSH2 0x100 EXP DUP2 SLOAD DUP2 PUSH20 0xFFFFFFFFFFFFFFFFFFFFFFFFFFFFFFFFFFFFFFFF MUL NOT AND SWAP1 DUP4 PUSH20 0xFFFFFFFFFFFFFFFFFFFFFFFFFFFFFFFFFFFFFFFF AND MUL OR SWAP1 SSTORE POP CALLVALUE PUSH1 0x2 PUSH1 0x0 CALLER PUSH20 0xFFFFFFFFFFFFFFFFFFFFFFFFFFFFFFFFFFFFFFFF AND PUSH20 0xFFFFFFFFFFFFFFFFFFFFFFFFFFFFFFFFFFFFFFFF AND DUP2 MSTORE PUSH1 0x20 ADD SWAP1 DUP2 MSTORE PUSH1 0x20 ADD PUSH1 0x0 KECCAK256 DUP2 SWAP1 SSTORE POP PUSH1 0x1 SWAP1 POP SWAP1 JUMP JUMPDEST PUSH1 0x2 PUSH1 0x20 MSTORE DUP1 PUSH1 0x0 MSTORE PUSH1 0x40 PUSH1 0x0 KECCAK256 PUSH1 0x0 SWAP2 POP SWAP1 POP SLOAD DUP2 JUMP JUMPDEST PUSH1 0x1 DUP2 DUP2 SLOAD DUP2 LT PUSH2 0x1F5 JUMPI PUSH1 0x0 DUP1 REVERT JUMPDEST SWAP1 PUSH1 0x0 MSTORE PUSH1 0x20 PUSH1 0x0 KECCAK256 ADD PUSH1 0x0 SWAP2 POP SLOAD SWAP1 PUSH2 0x100 EXP SWAP1 DIV PUSH20 0xFFFFFFFFFFFFFFFFFFFFFFFFFFFFFFFFFFFFFFFF AND DUP2 JUMP JUMPDEST PUSH1 0x0 DUP1 PUSH2 0x22F PUSH2 0x25E JUMP JUMPDEST SWAP1 POP PUSH1 0x0 PUSH8 0xDE0B6B3A7640000 DUP5 DUP4 PUSH2 0x248 SWAP2 SWAP1 PUSH2 0x53F JUMP JUMPDEST PUSH2 0x252 SWAP2 SWAP1 PUSH2 0x5C8 JUMP JUMPDEST SWAP1 POP DUP1 SWAP3 POP POP POP SWAP2 SWAP1 POP JUMP JUMPDEST PUSH1 0x0 DUP1 PUSH20 0xD4A33860578DE61DBABDC8BFDB98FD742FA7028E SWAP1 POP PUSH1 0x0 DUP2 PUSH20 0xFFFFFFFFFFFFFFFFFFFFFFFFFFFFFFFFFFFFFFFF AND PUSH4 0xFEAF968C PUSH1 0x40 MLOAD DUP2 PUSH4 0xFFFFFFFF AND PUSH1 0xE0 SHL DUP2 MSTORE PUSH1 0x4 ADD PUSH1 0xA0 PUSH1 0x40 MLOAD DUP1 DUP4 SUB DUP2 DUP7 DUP1 EXTCODESIZE ISZERO DUP1 ISZERO PUSH2 0x2C0 JUMPI PUSH1 0x0 DUP1 REVERT JUMPDEST POP GAS STATICCALL ISZERO DUP1 ISZERO PUSH2 0x2D4 JUMPI RETURNDATASIZE PUSH1 0x0 DUP1 RETURNDATACOPY RETURNDATASIZE PUSH1 0x0 REVERT JUMPDEST POP POP POP POP PUSH1 0x40 MLOAD RETURNDATASIZE PUSH1 0x1F NOT PUSH1 0x1F DUP3 ADD AND DUP3 ADD DUP1 PUSH1 0x40 MSTORE POP DUP2 ADD SWAP1 PUSH2 0x2F8 SWAP2 SWAP1 PUSH2 0x686 JUMP JUMPDEST POP POP POP SWAP2 POP POP PUSH5 0x2540BE400 DUP2 PUSH2 0x30F SWAP2 SWAP1 PUSH2 0x701 JUMP JUMPDEST SWAP3 POP POP POP SWAP1 JUMP JUMPDEST PUSH1 0x0 DUP2 ISZERO ISZERO SWAP1 POP SWAP2 SWAP1 POP JUMP JUMPDEST PUSH2 0x32B DUP2 PUSH2 0x316 JUMP JUMPDEST DUP3 MSTORE POP POP JUMP JUMPDEST PUSH1 0x0 PUSH1 0x20 DUP3 ADD SWAP1 POP PUSH2 0x346 PUSH1 0x0 DUP4 ADD DUP5 PUSH2 0x322 JUMP JUMPDEST SWAP3 SWAP2 POP POP JUMP JUMPDEST PUSH1 0x0 DUP1 REVERT JUMPDEST PUSH1 0x0 PUSH20 0xFFFFFFFFFFFFFFFFFFFFFFFFFFFFFFFFFFFFFFFF DUP3 AND SWAP1 POP SWAP2 SWAP1 POP JUMP JUMPDEST PUSH1 0x0 PUSH2 0x37C DUP3 PUSH2 0x351 JUMP JUMPDEST SWAP1 POP SWAP2 SWAP1 POP JUMP JUMPDEST PUSH2 0x38C DUP2 PUSH2 0x371 JUMP JUMPDEST DUP2 EQ PUSH2 0x397 JUMPI PUSH1 0x0 DUP1 REVERT JUMPDEST POP JUMP JUMPDEST PUSH1 0x0 DUP2 CALLDATALOAD SWAP1 POP PUSH2 0x3A9 DUP2 PUSH2 0x383 JUMP JUMPDEST SWAP3 SWAP2 POP POP JUMP JUMPDEST PUSH1 0x0 PUSH1 0x20 DUP3 DUP5 SUB SLT ISZERO PUSH2 0x3C5 JUMPI PUSH2 0x3C4 PUSH2 0x34C JUMP JUMPDEST JUMPDEST PUSH1 0x0 PUSH2 0x3D3 DUP5 DUP3 DUP6 ADD PUSH2 0x39A JUMP JUMPDEST SWAP2 POP POP SWAP3 SWAP2 POP POP JUMP JUMPDEST PUSH1 0x0 DUP2 SWAP1 POP SWAP2 SWAP1 POP JUMP JUMPDEST PUSH2 0x3EF DUP2 PUSH2 0x3DC JUMP JUMPDEST DUP3 MSTORE POP POP JUMP JUMPDEST PUSH1 0x0 PUSH1 0x20 DUP3 ADD SWAP1 POP PUSH2 0x40A PUSH1 0x0 DUP4 ADD DUP5 PUSH2 0x3E6 JUMP JUMPDEST SWAP3 SWAP2 POP POP JUMP JUMPDEST PUSH2 0x419 DUP2 PUSH2 0x3DC JUMP JUMPDEST DUP2 EQ PUSH2 0x424 JUMPI PUSH1 0x0 DUP1 REVERT JUMPDEST POP JUMP JUMPDEST PUSH1 0x0 DUP2 CALLDATALOAD SWAP1 POP PUSH2 0x436 DUP2 PUSH2 0x410 JUMP JUMPDEST SWAP3 SWAP2 POP POP JUMP JUMPDEST PUSH1 0x0 PUSH1 0x20 DUP3 DUP5 SUB SLT ISZERO PUSH2 0x452 JUMPI PUSH2 0x451 PUSH2 0x34C JUMP JUMPDEST JUMPDEST PUSH1 0x0 PUSH2 0x460 DUP5 DUP3 DUP6 ADD PUSH2 0x427 JUMP JUMPDEST SWAP2 POP POP SWAP3 SWAP2 POP POP JUMP JUMPDEST PUSH2 0x472 DUP2 PUSH2 0x371 JUMP JUMPDEST DUP3 MSTORE POP POP JUMP JUMPDEST PUSH1 0x0 PUSH1 0x20 DUP3 ADD SWAP1 POP PUSH2 0x48D PUSH1 0x0 DUP4 ADD DUP5 PUSH2 0x469 JUMP JUMPDEST SWAP3 SWAP2 POP POP JUMP JUMPDEST PUSH1 0x0 DUP3 DUP3 MSTORE PUSH1 0x20 DUP3 ADD SWAP1 POP SWAP3 SWAP2 POP POP JUMP JUMPDEST PUSH32 0x446F6E27742073656E64206D696E20616D6F756E740000000000000000000000 PUSH1 0x0 DUP3 ADD MSTORE POP JUMP JUMPDEST PUSH1 0x0 PUSH2 0x4DA PUSH1 0x15 DUP4 PUSH2 0x493 JUMP JUMPDEST SWAP2 POP PUSH2 0x4E5 DUP3 PUSH2 0x4A4 JUMP JUMPDEST PUSH1 0x20 DUP3 ADD SWAP1 POP SWAP2 SWAP1 POP JUMP JUMPDEST PUSH1 0x0 PUSH1 0x20 DUP3 ADD SWAP1 POP DUP2 DUP2 SUB PUSH1 0x0 DUP4 ADD MSTORE PUSH2 0x509 DUP2 PUSH2 0x4CD JUMP JUMPDEST SWAP1 POP SWAP2 SWAP1 POP JUMP JUMPDEST PUSH32 0x4E487B7100000000000000000000000000000000000000000000000000000000 PUSH1 0x0 MSTORE PUSH1 0x11 PUSH1 0x4 MSTORE PUSH1 0x24 PUSH1 0x0 REVERT JUMPDEST PUSH1 0x0 PUSH2 0x54A DUP3 PUSH2 0x3DC JUMP JUMPDEST SWAP2 POP PUSH2 0x555 DUP4 PUSH2 0x3DC JUMP JUMPDEST SWAP3 POP DUP2 PUSH32 0xFFFFFFFFFFFFFFFFFFFFFFFFFFFFFFFFFFFFFFFFFFFFFFFFFFFFFFFFFFFFFFFF DIV DUP4 GT DUP3 ISZERO ISZERO AND ISZERO PUSH2 0x58E JUMPI PUSH2 0x58D PUSH2 0x510 JUMP JUMPDEST JUMPDEST DUP3 DUP3 MUL SWAP1 POP SWAP3 SWAP2 POP POP JUMP JUMPDEST PUSH32 0x4E487B7100000000000000000000000000000000000000000000000000000000 PUSH1 0x0 MSTORE PUSH1 0x12 PUSH1 0x4 MSTORE PUSH1 0x24 PUSH1 0x0 REVERT JUMPDEST PUSH1 0x0 PUSH2 0x5D3 DUP3 PUSH2 0x3DC JUMP JUMPDEST SWAP2 POP PUSH2 0x5DE DUP4 PUSH2 0x3DC JUMP JUMPDEST SWAP3 POP DUP3 PUSH2 0x5EE JUMPI PUSH2 0x5ED PUSH2 0x599 JUMP JUMPDEST JUMPDEST DUP3 DUP3 DIV SWAP1 POP SWAP3 SWAP2 POP POP JUMP JUMPDEST PUSH1 0x0 PUSH10 0xFFFFFFFFFFFFFFFFFFFF DUP3 AND SWAP1 POP SWAP2 SWAP1 POP JUMP JUMPDEST PUSH2 0x618 DUP2 PUSH2 0x5F9 JUMP JUMPDEST DUP2 EQ PUSH2 0x623 JUMPI PUSH1 0x0 DUP1 REVERT JUMPDEST POP JUMP JUMPDEST PUSH1 0x0 DUP2 MLOAD SWAP1 POP PUSH2 0x635 DUP2 PUSH2 0x60F JUMP JUMPDEST SWAP3 SWAP2 POP POP JUMP JUMPDEST PUSH1 0x0 DUP2 SWAP1 POP SWAP2 SWAP1 POP JUMP JUMPDEST PUSH2 0x64E DUP2 PUSH2 0x63B JUMP JUMPDEST DUP2 EQ PUSH2 0x659 JUMPI PUSH1 0x0 DUP1 REVERT JUMPDEST POP JUMP JUMPDEST PUSH1 0x0 DUP2 MLOAD SWAP1 POP PUSH2 0x66B DUP2 PUSH2 0x645 JUMP JUMPDEST SWAP3 SWAP2 POP POP JUMP JUMPDEST PUSH1 0x0 DUP2 MLOAD SWAP1 POP PUSH2 0x680 DUP2 PUSH2 0x410 JUMP JUMPDEST SWAP3 SWAP2 POP POP JUMP JUMPDEST PUSH1 0x0 DUP1 PUSH1 0x0 DUP1 PUSH1 0x0 PUSH1 0xA0 DUP7 DUP9 SUB SLT ISZERO PUSH2 0x6A2 JUMPI PUSH2 0x6A1 PUSH2 0x34C JUMP JUMPDEST JUMPDEST PUSH1 0x0 PUSH2 0x6B0 DUP9 DUP3 DUP10 ADD PUSH2 0x626 JUMP JUMPDEST SWAP6 POP POP PUSH1 0x20 PUSH2 0x6C1 DUP9 DUP3 DUP10 ADD PUSH2 0x65C JUMP JUMPDEST SWAP5 POP POP PUSH1 0x40 PUSH2 0x6D2 DUP9 DUP3 DUP10 ADD PUSH2 0x671 JUMP JUMPDEST SWAP4 POP POP PUSH1 0x60 PUSH2 0x6E3 DUP9 DUP3 DUP10 ADD PUSH2 0x671 JUMP JUMPDEST SWAP3 POP POP PUSH1 0x80 PUSH2 0x6F4 DUP9 DUP3 DUP10 ADD PUSH2 0x626 JUMP JUMPDEST SWAP2 POP POP SWAP3 SWAP6 POP SWAP3 SWAP6 SWAP1 SWAP4 POP JUMP JUMPDEST PUSH1 0x0 PUSH2 0x70C DUP3 PUSH2 0x63B JUMP JUMPDEST SWAP2 POP PUSH2 0x717 DUP4 PUSH2 0x63B JUMP JUMPDEST SWAP3 POP DUP3 PUSH32 0x7FFFFFFFFFFFFFFFFFFFFFFFFFFFFFFFFFFFFFFFFFFFFFFFFFFFFFFFFFFFFFFF DIV DUP3 GT PUSH1 0x0 DUP5 SGT PUSH1 0x0 DUP5 SGT AND AND ISZERO PUSH2 0x756 JUMPI PUSH2 0x755 PUSH2 0x510 JUMP JUMPDEST JUMPDEST DUP2 PUSH32 0x8000000000000000000000000000000000000000000000000000000000000000 SDIV DUP4 SLT PUSH1 0x0 DUP5 SLT PUSH1 0x0 DUP5 SGT AND AND ISZERO PUSH2 0x793 JUMPI PUSH2 0x792 PUSH2 0x510 JUMP JUMPDEST JUMPDEST DUP3 PUSH32 0x8000000000000000000000000000000000000000000000000000000000000000 SDIV DUP3 SLT PUSH1 0x0 DUP5 SGT PUSH1 0x0 DUP5 SLT AND AND ISZERO PUSH2 0x7D0 JUMPI PUSH2 0x7CF PUSH2 0x510 JUMP JUMPDEST JUMPDEST DUP3 PUSH32 0x7FFFFFFFFFFFFFFFFFFFFFFFFFFFFFFFFFFFFFFFFFFFFFFFFFFFFFFFFFFFFFFF SDIV DUP3 SLT PUSH1 0x0 DUP5 SLT PUSH1 0x0 DUP5 SLT AND AND ISZERO PUSH2 0x80D JUMPI PUSH2 0x80C PUSH2 0x510 JUMP JUMPDEST JUMPDEST DUP3 DUP3 MUL SWAP1 POP SWAP3 SWAP2 POP POP JUMP INVALID LOG2 PUSH5 0x6970667358 0x22 SLT KECCAK256 PUSH4 0x30A7CABE PUSH31 0x8547F64BB43544FD377844EC054EABF03221BBE88C32C13A987464736F6C63 NUMBER STOP ADDMOD ADDMOD STOP CALLER "
				},
				"gasEstimates": {
					"creation": {
						"codeDepositCost": "425200",
						"executionCost": "22567",
						"totalCost": "447767"
					},
					"external": {
						"fund()": "infinite",
						"fundAmount(address)": "2814",
						"funders(uint256)": "4978"
					}
				},
				"methodIdentifiers": {
					"fund()": "b60d4288",
					"fundAmount(address)": "b82ffdf9",
					"funders(uint256)": "dc0d3dff"
				}
			},
			"storageLayout": {
				"storage": [
					{
						"astId": 57,
						"contract": "FundMe.sol:FundMe",
						"label": "minimumUSD",
						"offset": 0,
						"slot": "0",
						"type": "t_uint256"
					},
					{
						"astId": 60,
						"contract": "FundMe.sol:FundMe",
						"label": "funders",
						"offset": 0,
						"slot": "1",
						"type": "t_array(t_address)dyn_storage"
					},
					{
						"astId": 64,
						"contract": "FundMe.sol:FundMe",
						"label": "fundAmount",
						"offset": 0,
						"slot": "2",
						"type": "t_mapping(t_address,t_uint256)"
					}
				],
				"types": {
					"t_address": {
						"encoding": "inplace",
						"label": "address",
						"numberOfBytes": "20"
					},
					"t_array(t_address)dyn_storage": {
						"base": "t_address",
						"encoding": "dynamic_array",
						"label": "address[]",
						"numberOfBytes": "32"
					},
					"t_mapping(t_address,t_uint256)": {
						"encoding": "mapping",
						"key": "t_address",
						"label": "mapping(address => uint256)",
						"numberOfBytes": "32",
						"value": "t_uint256"
					},
					"t_uint256": {
						"encoding": "inplace",
						"label": "uint256",
						"numberOfBytes": "32"
					}
				}
			},
			"userdoc": {
				"kind": "user",
				"methods": {},
				"version": 1
			}
		}
	}
}