{
	"FundMe.sol": {
		"FundMe": {
			"abi": [
				{
					"inputs": [
						{
							"internalType": "uint256",
							"name": "ethAmount",
							"type": "uint256"
						}
					],
					"name": "convertEthAmountInUSD",
					"outputs": [
						{
							"internalType": "uint256",
							"name": "",
							"type": "uint256"
						}
					],
					"stateMutability": "nonpayable",
					"type": "function"
				},
				{
					"inputs": [],
					"name": "fund",
					"outputs": [
						{
							"internalType": "bool",
							"name": "",
							"type": "bool"
						}
					],
					"stateMutability": "payable",
					"type": "function"
				},
				{
					"inputs": [],
					"name": "getETHPriceInUSD",
					"outputs": [
						{
							"internalType": "uint256",
							"name": "",
							"type": "uint256"
						}
					],
					"stateMutability": "view",
					"type": "function"
				}
			],
			"devdoc": {
				"kind": "dev",
				"methods": {},
				"version": 1
			},
			"evm": {
				"assembly": "    /* \"FundMe.sol\":210:2001  contract FundMe {... */\n  mstore(0x40, 0x80)\n    /* \"FundMe.sol\":313:322  50 * 1e18 */\n  0x02b5e3af16b1880000\n    /* \"FundMe.sol\":292:322  uint256 minimumUSD = 50 * 1e18 */\n  0x00\n  sstore\n    /* \"FundMe.sol\":210:2001  contract FundMe {... */\n  callvalue\n  dup1\n  iszero\n  tag_1\n  jumpi\n  0x00\n  dup1\n  revert\ntag_1:\n  pop\n  dataSize(sub_0)\n  dup1\n  dataOffset(sub_0)\n  0x00\n  codecopy\n  0x00\n  return\nstop\n\nsub_0: assembly {\n        /* \"FundMe.sol\":210:2001  contract FundMe {... */\n      mstore(0x40, 0x80)\n      jumpi(tag_1, lt(calldatasize, 0x04))\n      shr(0xe0, calldataload(0x00))\n      dup1\n      0x8a383890\n      eq\n      tag_2\n      jumpi\n      dup1\n      0xb60d4288\n      eq\n      tag_3\n      jumpi\n      dup1\n      0xb62e3c5a\n      eq\n      tag_4\n      jumpi\n    tag_1:\n      0x00\n      dup1\n      revert\n        /* \"FundMe.sol\":1462:1999  function convertEthAmountInUSD(uint256 ethAmount) public returns (uint256) {... */\n    tag_2:\n      callvalue\n      dup1\n      iszero\n      tag_5\n      jumpi\n      0x00\n      dup1\n      revert\n    tag_5:\n      pop\n      tag_6\n      0x04\n      dup1\n      calldatasize\n      sub\n      dup2\n      add\n      swap1\n      tag_7\n      swap2\n      swap1\n      tag_8\n      jump\t// in\n    tag_7:\n      tag_9\n      jump\t// in\n    tag_6:\n      mload(0x40)\n      tag_10\n      swap2\n      swap1\n      tag_11\n      jump\t// in\n    tag_10:\n      mload(0x40)\n      dup1\n      swap2\n      sub\n      swap1\n      return\n        /* \"FundMe.sol\":370:735  function fund() public payable returns (bool) {... */\n    tag_3:\n      tag_12\n      tag_13\n      jump\t// in\n    tag_12:\n      mload(0x40)\n      tag_14\n      swap2\n      swap1\n      tag_15\n      jump\t// in\n    tag_14:\n      mload(0x40)\n      dup1\n      swap2\n      sub\n      swap1\n      return\n        /* \"FundMe.sol\":807:1456  function getETHPriceInUSD() public view returns (uint256) {... */\n    tag_4:\n      callvalue\n      dup1\n      iszero\n      tag_16\n      jumpi\n      0x00\n      dup1\n      revert\n    tag_16:\n      pop\n      tag_17\n      tag_18\n      jump\t// in\n    tag_17:\n      mload(0x40)\n      tag_19\n      swap2\n      swap1\n      tag_11\n      jump\t// in\n    tag_19:\n      mload(0x40)\n      dup1\n      swap2\n      sub\n      swap1\n      return\n        /* \"FundMe.sol\":1462:1999  function convertEthAmountInUSD(uint256 ethAmount) public returns (uint256) {... */\n    tag_9:\n        /* \"FundMe.sol\":1528:1535  uint256 */\n      0x00\n        /* \"FundMe.sol\":1547:1563  uint256 ethPrice */\n      dup1\n        /* \"FundMe.sol\":1566:1584  getETHPriceInUSD() */\n      tag_21\n        /* \"FundMe.sol\":1566:1582  getETHPriceInUSD */\n      tag_18\n        /* \"FundMe.sol\":1566:1584  getETHPriceInUSD() */\n      jump\t// in\n    tag_21:\n        /* \"FundMe.sol\":1547:1584  uint256 ethPrice = getETHPriceInUSD() */\n      swap1\n      pop\n        /* \"FundMe.sol\":1907:1929  uint256 ethAmountInUSD */\n      0x00\n        /* \"FundMe.sol\":1957:1961  1e18 */\n      0x0de0b6b3a7640000\n        /* \"FundMe.sol\":1944:1953  ethAmount */\n      dup5\n        /* \"FundMe.sol\":1933:1941  ethPrice */\n      dup4\n        /* \"FundMe.sol\":1933:1953  ethPrice * ethAmount */\n      tag_22\n      swap2\n      swap1\n      tag_23\n      jump\t// in\n    tag_22:\n        /* \"FundMe.sol\":1932:1961  (ethPrice * ethAmount) / 1e18 */\n      tag_24\n      swap2\n      swap1\n      tag_25\n      jump\t// in\n    tag_24:\n        /* \"FundMe.sol\":1907:1961  uint256 ethAmountInUSD = (ethPrice * ethAmount) / 1e18 */\n      swap1\n      pop\n        /* \"FundMe.sol\":1978:1992  ethAmountInUSD */\n      dup1\n        /* \"FundMe.sol\":1971:1992  return ethAmountInUSD */\n      swap3\n      pop\n      pop\n      pop\n        /* \"FundMe.sol\":1462:1999  function convertEthAmountInUSD(uint256 ethAmount) public returns (uint256) {... */\n      swap2\n      swap1\n      pop\n      jump\t// out\n        /* \"FundMe.sol\":370:735  function fund() public payable returns (bool) {... */\n    tag_13:\n        /* \"FundMe.sol\":410:414  bool */\n      0x00\n        /* \"FundMe.sol\":650:660  minimumUSD */\n      dup1\n      sload\n        /* \"FundMe.sol\":614:646  convertEthAmountInUSD(msg.value) */\n      tag_27\n        /* \"FundMe.sol\":636:645  msg.value */\n      callvalue\n        /* \"FundMe.sol\":614:635  convertEthAmountInUSD */\n      tag_9\n        /* \"FundMe.sol\":614:646  convertEthAmountInUSD(msg.value) */\n      jump\t// in\n    tag_27:\n        /* \"FundMe.sol\":614:660  convertEthAmountInUSD(msg.value) >= minimumUSD */\n      lt\n      iszero\n        /* \"FundMe.sol\":593:707  require(... */\n      tag_28\n      jumpi\n      mload(0x40)\n      0x08c379a000000000000000000000000000000000000000000000000000000000\n      dup2\n      mstore\n      0x04\n      add\n      tag_29\n      swap1\n      tag_30\n      jump\t// in\n    tag_29:\n      mload(0x40)\n      dup1\n      swap2\n      sub\n      swap1\n      revert\n    tag_28:\n        /* \"FundMe.sol\":724:728  true */\n      0x01\n        /* \"FundMe.sol\":717:728  return true */\n      swap1\n      pop\n        /* \"FundMe.sol\":370:735  function fund() public payable returns (bool) {... */\n      swap1\n      jump\t// out\n        /* \"FundMe.sol\":807:1456  function getETHPriceInUSD() public view returns (uint256) {... */\n    tag_18:\n        /* \"FundMe.sol\":856:863  uint256 */\n      0x00\n        /* \"FundMe.sol\":952:983  AggregatorV3Interface pricefeed */\n      dup1\n        /* \"FundMe.sol\":1021:1063  0xD4a33860578De61DBAbDc8BFdb98FD742fA7028e */\n      0xd4a33860578de61dbabdc8bfdb98fd742fa7028e\n        /* \"FundMe.sol\":952:1073  AggregatorV3Interface pricefeed = AggregatorV3Interface(... */\n      swap1\n      pop\n        /* \"FundMe.sol\":1127:1144  int256 priceInUSD */\n      0x00\n        /* \"FundMe.sol\":1154:1163  pricefeed */\n      dup2\n        /* \"FundMe.sol\":1154:1179  pricefeed.latestRoundData */\n      0xffffffffffffffffffffffffffffffffffffffff\n      and\n      0xfeaf968c\n        /* \"FundMe.sol\":1154:1181  pricefeed.latestRoundData() */\n      mload(0x40)\n      dup2\n      0xffffffff\n      and\n      0xe0\n      shl\n      dup2\n      mstore\n      0x04\n      add\n      0xa0\n      mload(0x40)\n      dup1\n      dup4\n      sub\n      dup2\n      dup7\n      gas\n      staticcall\n      iszero\n      dup1\n      iszero\n      tag_33\n      jumpi\n      returndatasize\n      0x00\n      dup1\n      returndatacopy\n      revert(0x00, returndatasize)\n    tag_33:\n      pop\n      pop\n      pop\n      pop\n      mload(0x40)\n      returndatasize\n      not(0x1f)\n      0x1f\n      dup3\n      add\n      and\n      dup3\n      add\n      dup1\n      0x40\n      mstore\n      pop\n      dup2\n      add\n      swap1\n      tag_34\n      swap2\n      swap1\n      tag_35\n      jump\t// in\n    tag_34:\n        /* \"FundMe.sol\":1124:1181  (, int256 priceInUSD, , , ) = pricefeed.latestRoundData() */\n      pop\n      pop\n      pop\n      swap2\n      pop\n      pop\n        /* \"FundMe.sol\":1423:1427  1e10 */\n      0x02540be400\n        /* \"FundMe.sol\":1410:1420  priceInUSD */\n      dup2\n        /* \"FundMe.sol\":1410:1427  priceInUSD * 1e10 */\n      tag_36\n      swap2\n      swap1\n      tag_37\n      jump\t// in\n    tag_36:\n        /* \"FundMe.sol\":1395:1428  return uint256(priceInUSD * 1e10) */\n      swap3\n      pop\n      pop\n      pop\n        /* \"FundMe.sol\":807:1456  function getETHPriceInUSD() public view returns (uint256) {... */\n      swap1\n      jump\t// out\n        /* \"#utility.yul\":88:205   */\n    tag_39:\n        /* \"#utility.yul\":197:198   */\n      0x00\n        /* \"#utility.yul\":194:195   */\n      dup1\n        /* \"#utility.yul\":187:199   */\n      revert\n        /* \"#utility.yul\":334:411   */\n    tag_41:\n        /* \"#utility.yul\":371:378   */\n      0x00\n        /* \"#utility.yul\":400:405   */\n      dup2\n        /* \"#utility.yul\":389:405   */\n      swap1\n      pop\n        /* \"#utility.yul\":334:411   */\n      swap2\n      swap1\n      pop\n      jump\t// out\n        /* \"#utility.yul\":417:539   */\n    tag_42:\n        /* \"#utility.yul\":490:514   */\n      tag_65\n        /* \"#utility.yul\":508:513   */\n      dup2\n        /* \"#utility.yul\":490:514   */\n      tag_41\n      jump\t// in\n    tag_65:\n        /* \"#utility.yul\":483:488   */\n      dup2\n        /* \"#utility.yul\":480:515   */\n      eq\n        /* \"#utility.yul\":470:533   */\n      tag_66\n      jumpi\n        /* \"#utility.yul\":529:530   */\n      0x00\n        /* \"#utility.yul\":526:527   */\n      dup1\n        /* \"#utility.yul\":519:531   */\n      revert\n        /* \"#utility.yul\":470:533   */\n    tag_66:\n        /* \"#utility.yul\":417:539   */\n      pop\n      jump\t// out\n        /* \"#utility.yul\":545:684   */\n    tag_43:\n        /* \"#utility.yul\":591:596   */\n      0x00\n        /* \"#utility.yul\":629:635   */\n      dup2\n        /* \"#utility.yul\":616:636   */\n      calldataload\n        /* \"#utility.yul\":607:636   */\n      swap1\n      pop\n        /* \"#utility.yul\":645:678   */\n      tag_68\n        /* \"#utility.yul\":672:677   */\n      dup2\n        /* \"#utility.yul\":645:678   */\n      tag_42\n      jump\t// in\n    tag_68:\n        /* \"#utility.yul\":545:684   */\n      swap3\n      swap2\n      pop\n      pop\n      jump\t// out\n        /* \"#utility.yul\":690:1019   */\n    tag_8:\n        /* \"#utility.yul\":749:755   */\n      0x00\n        /* \"#utility.yul\":798:800   */\n      0x20\n        /* \"#utility.yul\":786:795   */\n      dup3\n        /* \"#utility.yul\":777:784   */\n      dup5\n        /* \"#utility.yul\":773:796   */\n      sub\n        /* \"#utility.yul\":769:801   */\n      slt\n        /* \"#utility.yul\":766:885   */\n      iszero\n      tag_70\n      jumpi\n        /* \"#utility.yul\":804:883   */\n      tag_71\n      tag_39\n      jump\t// in\n    tag_71:\n        /* \"#utility.yul\":766:885   */\n    tag_70:\n        /* \"#utility.yul\":924:925   */\n      0x00\n        /* \"#utility.yul\":949:1002   */\n      tag_72\n        /* \"#utility.yul\":994:1001   */\n      dup5\n        /* \"#utility.yul\":985:991   */\n      dup3\n        /* \"#utility.yul\":974:983   */\n      dup6\n        /* \"#utility.yul\":970:992   */\n      add\n        /* \"#utility.yul\":949:1002   */\n      tag_43\n      jump\t// in\n    tag_72:\n        /* \"#utility.yul\":939:1002   */\n      swap2\n      pop\n        /* \"#utility.yul\":895:1012   */\n      pop\n        /* \"#utility.yul\":690:1019   */\n      swap3\n      swap2\n      pop\n      pop\n      jump\t// out\n        /* \"#utility.yul\":1025:1143   */\n    tag_44:\n        /* \"#utility.yul\":1112:1136   */\n      tag_74\n        /* \"#utility.yul\":1130:1135   */\n      dup2\n        /* \"#utility.yul\":1112:1136   */\n      tag_41\n      jump\t// in\n    tag_74:\n        /* \"#utility.yul\":1107:1110   */\n      dup3\n        /* \"#utility.yul\":1100:1137   */\n      mstore\n        /* \"#utility.yul\":1025:1143   */\n      pop\n      pop\n      jump\t// out\n        /* \"#utility.yul\":1149:1371   */\n    tag_11:\n        /* \"#utility.yul\":1242:1246   */\n      0x00\n        /* \"#utility.yul\":1280:1282   */\n      0x20\n        /* \"#utility.yul\":1269:1278   */\n      dup3\n        /* \"#utility.yul\":1265:1283   */\n      add\n        /* \"#utility.yul\":1257:1283   */\n      swap1\n      pop\n        /* \"#utility.yul\":1293:1364   */\n      tag_76\n        /* \"#utility.yul\":1361:1362   */\n      0x00\n        /* \"#utility.yul\":1350:1359   */\n      dup4\n        /* \"#utility.yul\":1346:1363   */\n      add\n        /* \"#utility.yul\":1337:1343   */\n      dup5\n        /* \"#utility.yul\":1293:1364   */\n      tag_44\n      jump\t// in\n    tag_76:\n        /* \"#utility.yul\":1149:1371   */\n      swap3\n      swap2\n      pop\n      pop\n      jump\t// out\n        /* \"#utility.yul\":1377:1467   */\n    tag_45:\n        /* \"#utility.yul\":1411:1418   */\n      0x00\n        /* \"#utility.yul\":1454:1459   */\n      dup2\n        /* \"#utility.yul\":1447:1460   */\n      iszero\n        /* \"#utility.yul\":1440:1461   */\n      iszero\n        /* \"#utility.yul\":1429:1461   */\n      swap1\n      pop\n        /* \"#utility.yul\":1377:1467   */\n      swap2\n      swap1\n      pop\n      jump\t// out\n        /* \"#utility.yul\":1473:1582   */\n    tag_46:\n        /* \"#utility.yul\":1554:1575   */\n      tag_79\n        /* \"#utility.yul\":1569:1574   */\n      dup2\n        /* \"#utility.yul\":1554:1575   */\n      tag_45\n      jump\t// in\n    tag_79:\n        /* \"#utility.yul\":1549:1552   */\n      dup3\n        /* \"#utility.yul\":1542:1576   */\n      mstore\n        /* \"#utility.yul\":1473:1582   */\n      pop\n      pop\n      jump\t// out\n        /* \"#utility.yul\":1588:1798   */\n    tag_15:\n        /* \"#utility.yul\":1675:1679   */\n      0x00\n        /* \"#utility.yul\":1713:1715   */\n      0x20\n        /* \"#utility.yul\":1702:1711   */\n      dup3\n        /* \"#utility.yul\":1698:1716   */\n      add\n        /* \"#utility.yul\":1690:1716   */\n      swap1\n      pop\n        /* \"#utility.yul\":1726:1791   */\n      tag_81\n        /* \"#utility.yul\":1788:1789   */\n      0x00\n        /* \"#utility.yul\":1777:1786   */\n      dup4\n        /* \"#utility.yul\":1773:1790   */\n      add\n        /* \"#utility.yul\":1764:1770   */\n      dup5\n        /* \"#utility.yul\":1726:1791   */\n      tag_46\n      jump\t// in\n    tag_81:\n        /* \"#utility.yul\":1588:1798   */\n      swap3\n      swap2\n      pop\n      pop\n      jump\t// out\n        /* \"#utility.yul\":1804:1984   */\n    tag_47:\n        /* \"#utility.yul\":1852:1929   */\n      0x4e487b7100000000000000000000000000000000000000000000000000000000\n        /* \"#utility.yul\":1849:1850   */\n      0x00\n        /* \"#utility.yul\":1842:1930   */\n      mstore\n        /* \"#utility.yul\":1949:1953   */\n      0x11\n        /* \"#utility.yul\":1946:1947   */\n      0x04\n        /* \"#utility.yul\":1939:1954   */\n      mstore\n        /* \"#utility.yul\":1973:1977   */\n      0x24\n        /* \"#utility.yul\":1970:1971   */\n      0x00\n        /* \"#utility.yul\":1963:1978   */\n      revert\n        /* \"#utility.yul\":1990:2338   */\n    tag_23:\n        /* \"#utility.yul\":2030:2037   */\n      0x00\n        /* \"#utility.yul\":2053:2073   */\n      tag_84\n        /* \"#utility.yul\":2071:2072   */\n      dup3\n        /* \"#utility.yul\":2053:2073   */\n      tag_41\n      jump\t// in\n    tag_84:\n        /* \"#utility.yul\":2048:2073   */\n      swap2\n      pop\n        /* \"#utility.yul\":2087:2107   */\n      tag_85\n        /* \"#utility.yul\":2105:2106   */\n      dup4\n        /* \"#utility.yul\":2087:2107   */\n      tag_41\n      jump\t// in\n    tag_85:\n        /* \"#utility.yul\":2082:2107   */\n      swap3\n      pop\n        /* \"#utility.yul\":2275:2276   */\n      dup2\n        /* \"#utility.yul\":2207:2273   */\n      0xffffffffffffffffffffffffffffffffffffffffffffffffffffffffffffffff\n        /* \"#utility.yul\":2203:2277   */\n      div\n        /* \"#utility.yul\":2200:2201   */\n      dup4\n        /* \"#utility.yul\":2197:2278   */\n      gt\n        /* \"#utility.yul\":2192:2193   */\n      dup3\n        /* \"#utility.yul\":2185:2194   */\n      iszero\n        /* \"#utility.yul\":2178:2195   */\n      iszero\n        /* \"#utility.yul\":2174:2279   */\n      and\n        /* \"#utility.yul\":2171:2302   */\n      iszero\n      tag_86\n      jumpi\n        /* \"#utility.yul\":2282:2300   */\n      tag_87\n      tag_47\n      jump\t// in\n    tag_87:\n        /* \"#utility.yul\":2171:2302   */\n    tag_86:\n        /* \"#utility.yul\":2330:2331   */\n      dup3\n        /* \"#utility.yul\":2327:2328   */\n      dup3\n        /* \"#utility.yul\":2323:2332   */\n      mul\n        /* \"#utility.yul\":2312:2332   */\n      swap1\n      pop\n        /* \"#utility.yul\":1990:2338   */\n      swap3\n      swap2\n      pop\n      pop\n      jump\t// out\n        /* \"#utility.yul\":2344:2524   */\n    tag_48:\n        /* \"#utility.yul\":2392:2469   */\n      0x4e487b7100000000000000000000000000000000000000000000000000000000\n        /* \"#utility.yul\":2389:2390   */\n      0x00\n        /* \"#utility.yul\":2382:2470   */\n      mstore\n        /* \"#utility.yul\":2489:2493   */\n      0x12\n        /* \"#utility.yul\":2486:2487   */\n      0x04\n        /* \"#utility.yul\":2479:2494   */\n      mstore\n        /* \"#utility.yul\":2513:2517   */\n      0x24\n        /* \"#utility.yul\":2510:2511   */\n      0x00\n        /* \"#utility.yul\":2503:2518   */\n      revert\n        /* \"#utility.yul\":2530:2715   */\n    tag_25:\n        /* \"#utility.yul\":2570:2571   */\n      0x00\n        /* \"#utility.yul\":2587:2607   */\n      tag_90\n        /* \"#utility.yul\":2605:2606   */\n      dup3\n        /* \"#utility.yul\":2587:2607   */\n      tag_41\n      jump\t// in\n    tag_90:\n        /* \"#utility.yul\":2582:2607   */\n      swap2\n      pop\n        /* \"#utility.yul\":2621:2641   */\n      tag_91\n        /* \"#utility.yul\":2639:2640   */\n      dup4\n        /* \"#utility.yul\":2621:2641   */\n      tag_41\n      jump\t// in\n    tag_91:\n        /* \"#utility.yul\":2616:2641   */\n      swap3\n      pop\n        /* \"#utility.yul\":2660:2661   */\n      dup3\n        /* \"#utility.yul\":2650:2685   */\n      tag_92\n      jumpi\n        /* \"#utility.yul\":2665:2683   */\n      tag_93\n      tag_48\n      jump\t// in\n    tag_93:\n        /* \"#utility.yul\":2650:2685   */\n    tag_92:\n        /* \"#utility.yul\":2707:2708   */\n      dup3\n        /* \"#utility.yul\":2704:2705   */\n      dup3\n        /* \"#utility.yul\":2700:2709   */\n      div\n        /* \"#utility.yul\":2695:2709   */\n      swap1\n      pop\n        /* \"#utility.yul\":2530:2715   */\n      swap3\n      swap2\n      pop\n      pop\n      jump\t// out\n        /* \"#utility.yul\":2721:2890   */\n    tag_49:\n        /* \"#utility.yul\":2805:2816   */\n      0x00\n        /* \"#utility.yul\":2839:2845   */\n      dup3\n        /* \"#utility.yul\":2834:2837   */\n      dup3\n        /* \"#utility.yul\":2827:2846   */\n      mstore\n        /* \"#utility.yul\":2879:2883   */\n      0x20\n        /* \"#utility.yul\":2874:2877   */\n      dup3\n        /* \"#utility.yul\":2870:2884   */\n      add\n        /* \"#utility.yul\":2855:2884   */\n      swap1\n      pop\n        /* \"#utility.yul\":2721:2890   */\n      swap3\n      swap2\n      pop\n      pop\n      jump\t// out\n        /* \"#utility.yul\":2896:3067   */\n    tag_50:\n        /* \"#utility.yul\":3036:3059   */\n      0x446f6e27742073656e64206d696e20616d6f756e740000000000000000000000\n        /* \"#utility.yul\":3032:3033   */\n      0x00\n        /* \"#utility.yul\":3024:3030   */\n      dup3\n        /* \"#utility.yul\":3020:3034   */\n      add\n        /* \"#utility.yul\":3013:3060   */\n      mstore\n        /* \"#utility.yul\":2896:3067   */\n      pop\n      jump\t// out\n        /* \"#utility.yul\":3073:3439   */\n    tag_51:\n        /* \"#utility.yul\":3215:3218   */\n      0x00\n        /* \"#utility.yul\":3236:3303   */\n      tag_97\n        /* \"#utility.yul\":3300:3302   */\n      0x15\n        /* \"#utility.yul\":3295:3298   */\n      dup4\n        /* \"#utility.yul\":3236:3303   */\n      tag_49\n      jump\t// in\n    tag_97:\n        /* \"#utility.yul\":3229:3303   */\n      swap2\n      pop\n        /* \"#utility.yul\":3312:3405   */\n      tag_98\n        /* \"#utility.yul\":3401:3404   */\n      dup3\n        /* \"#utility.yul\":3312:3405   */\n      tag_50\n      jump\t// in\n    tag_98:\n        /* \"#utility.yul\":3430:3432   */\n      0x20\n        /* \"#utility.yul\":3425:3428   */\n      dup3\n        /* \"#utility.yul\":3421:3433   */\n      add\n        /* \"#utility.yul\":3414:3433   */\n      swap1\n      pop\n        /* \"#utility.yul\":3073:3439   */\n      swap2\n      swap1\n      pop\n      jump\t// out\n        /* \"#utility.yul\":3445:3864   */\n    tag_30:\n        /* \"#utility.yul\":3611:3615   */\n      0x00\n        /* \"#utility.yul\":3649:3651   */\n      0x20\n        /* \"#utility.yul\":3638:3647   */\n      dup3\n        /* \"#utility.yul\":3634:3652   */\n      add\n        /* \"#utility.yul\":3626:3652   */\n      swap1\n      pop\n        /* \"#utility.yul\":3698:3707   */\n      dup2\n        /* \"#utility.yul\":3692:3696   */\n      dup2\n        /* \"#utility.yul\":3688:3708   */\n      sub\n        /* \"#utility.yul\":3684:3685   */\n      0x00\n        /* \"#utility.yul\":3673:3682   */\n      dup4\n        /* \"#utility.yul\":3669:3686   */\n      add\n        /* \"#utility.yul\":3662:3709   */\n      mstore\n        /* \"#utility.yul\":3726:3857   */\n      tag_100\n        /* \"#utility.yul\":3852:3856   */\n      dup2\n        /* \"#utility.yul\":3726:3857   */\n      tag_51\n      jump\t// in\n    tag_100:\n        /* \"#utility.yul\":3718:3857   */\n      swap1\n      pop\n        /* \"#utility.yul\":3445:3864   */\n      swap2\n      swap1\n      pop\n      jump\t// out\n        /* \"#utility.yul\":3870:3975   */\n    tag_52:\n        /* \"#utility.yul\":3906:3913   */\n      0x00\n        /* \"#utility.yul\":3946:3968   */\n      0xffffffffffffffffffff\n        /* \"#utility.yul\":3939:3944   */\n      dup3\n        /* \"#utility.yul\":3935:3969   */\n      and\n        /* \"#utility.yul\":3924:3969   */\n      swap1\n      pop\n        /* \"#utility.yul\":3870:3975   */\n      swap2\n      swap1\n      pop\n      jump\t// out\n        /* \"#utility.yul\":3981:4101   */\n    tag_53:\n        /* \"#utility.yul\":4053:4076   */\n      tag_103\n        /* \"#utility.yul\":4070:4075   */\n      dup2\n        /* \"#utility.yul\":4053:4076   */\n      tag_52\n      jump\t// in\n    tag_103:\n        /* \"#utility.yul\":4046:4051   */\n      dup2\n        /* \"#utility.yul\":4043:4077   */\n      eq\n        /* \"#utility.yul\":4033:4095   */\n      tag_104\n      jumpi\n        /* \"#utility.yul\":4091:4092   */\n      0x00\n        /* \"#utility.yul\":4088:4089   */\n      dup1\n        /* \"#utility.yul\":4081:4093   */\n      revert\n        /* \"#utility.yul\":4033:4095   */\n    tag_104:\n        /* \"#utility.yul\":3981:4101   */\n      pop\n      jump\t// out\n        /* \"#utility.yul\":4107:4248   */\n    tag_54:\n        /* \"#utility.yul\":4163:4168   */\n      0x00\n        /* \"#utility.yul\":4194:4200   */\n      dup2\n        /* \"#utility.yul\":4188:4201   */\n      mload\n        /* \"#utility.yul\":4179:4201   */\n      swap1\n      pop\n        /* \"#utility.yul\":4210:4242   */\n      tag_106\n        /* \"#utility.yul\":4236:4241   */\n      dup2\n        /* \"#utility.yul\":4210:4242   */\n      tag_53\n      jump\t// in\n    tag_106:\n        /* \"#utility.yul\":4107:4248   */\n      swap3\n      swap2\n      pop\n      pop\n      jump\t// out\n        /* \"#utility.yul\":4254:4330   */\n    tag_55:\n        /* \"#utility.yul\":4290:4297   */\n      0x00\n        /* \"#utility.yul\":4319:4324   */\n      dup2\n        /* \"#utility.yul\":4308:4324   */\n      swap1\n      pop\n        /* \"#utility.yul\":4254:4330   */\n      swap2\n      swap1\n      pop\n      jump\t// out\n        /* \"#utility.yul\":4336:4456   */\n    tag_56:\n        /* \"#utility.yul\":4408:4431   */\n      tag_109\n        /* \"#utility.yul\":4425:4430   */\n      dup2\n        /* \"#utility.yul\":4408:4431   */\n      tag_55\n      jump\t// in\n    tag_109:\n        /* \"#utility.yul\":4401:4406   */\n      dup2\n        /* \"#utility.yul\":4398:4432   */\n      eq\n        /* \"#utility.yul\":4388:4450   */\n      tag_110\n      jumpi\n        /* \"#utility.yul\":4446:4447   */\n      0x00\n        /* \"#utility.yul\":4443:4444   */\n      dup1\n        /* \"#utility.yul\":4436:4448   */\n      revert\n        /* \"#utility.yul\":4388:4450   */\n    tag_110:\n        /* \"#utility.yul\":4336:4456   */\n      pop\n      jump\t// out\n        /* \"#utility.yul\":4462:4603   */\n    tag_57:\n        /* \"#utility.yul\":4518:4523   */\n      0x00\n        /* \"#utility.yul\":4549:4555   */\n      dup2\n        /* \"#utility.yul\":4543:4556   */\n      mload\n        /* \"#utility.yul\":4534:4556   */\n      swap1\n      pop\n        /* \"#utility.yul\":4565:4597   */\n      tag_112\n        /* \"#utility.yul\":4591:4596   */\n      dup2\n        /* \"#utility.yul\":4565:4597   */\n      tag_56\n      jump\t// in\n    tag_112:\n        /* \"#utility.yul\":4462:4603   */\n      swap3\n      swap2\n      pop\n      pop\n      jump\t// out\n        /* \"#utility.yul\":4609:4752   */\n    tag_58:\n        /* \"#utility.yul\":4666:4671   */\n      0x00\n        /* \"#utility.yul\":4697:4703   */\n      dup2\n        /* \"#utility.yul\":4691:4704   */\n      mload\n        /* \"#utility.yul\":4682:4704   */\n      swap1\n      pop\n        /* \"#utility.yul\":4713:4746   */\n      tag_114\n        /* \"#utility.yul\":4740:4745   */\n      dup2\n        /* \"#utility.yul\":4713:4746   */\n      tag_42\n      jump\t// in\n    tag_114:\n        /* \"#utility.yul\":4609:4752   */\n      swap3\n      swap2\n      pop\n      pop\n      jump\t// out\n        /* \"#utility.yul\":4758:5729   */\n    tag_35:\n        /* \"#utility.yul\":4861:4867   */\n      0x00\n        /* \"#utility.yul\":4869:4875   */\n      dup1\n        /* \"#utility.yul\":4877:4883   */\n      0x00\n        /* \"#utility.yul\":4885:4891   */\n      dup1\n        /* \"#utility.yul\":4893:4899   */\n      0x00\n        /* \"#utility.yul\":4942:4945   */\n      0xa0\n        /* \"#utility.yul\":4930:4939   */\n      dup7\n        /* \"#utility.yul\":4921:4928   */\n      dup9\n        /* \"#utility.yul\":4917:4940   */\n      sub\n        /* \"#utility.yul\":4913:4946   */\n      slt\n        /* \"#utility.yul\":4910:5030   */\n      iszero\n      tag_116\n      jumpi\n        /* \"#utility.yul\":4949:5028   */\n      tag_117\n      tag_39\n      jump\t// in\n    tag_117:\n        /* \"#utility.yul\":4910:5030   */\n    tag_116:\n        /* \"#utility.yul\":5069:5070   */\n      0x00\n        /* \"#utility.yul\":5094:5157   */\n      tag_118\n        /* \"#utility.yul\":5149:5156   */\n      dup9\n        /* \"#utility.yul\":5140:5146   */\n      dup3\n        /* \"#utility.yul\":5129:5138   */\n      dup10\n        /* \"#utility.yul\":5125:5147   */\n      add\n        /* \"#utility.yul\":5094:5157   */\n      tag_54\n      jump\t// in\n    tag_118:\n        /* \"#utility.yul\":5084:5157   */\n      swap6\n      pop\n        /* \"#utility.yul\":5040:5167   */\n      pop\n        /* \"#utility.yul\":5206:5208   */\n      0x20\n        /* \"#utility.yul\":5232:5295   */\n      tag_119\n        /* \"#utility.yul\":5287:5294   */\n      dup9\n        /* \"#utility.yul\":5278:5284   */\n      dup3\n        /* \"#utility.yul\":5267:5276   */\n      dup10\n        /* \"#utility.yul\":5263:5285   */\n      add\n        /* \"#utility.yul\":5232:5295   */\n      tag_57\n      jump\t// in\n    tag_119:\n        /* \"#utility.yul\":5222:5295   */\n      swap5\n      pop\n        /* \"#utility.yul\":5177:5305   */\n      pop\n        /* \"#utility.yul\":5344:5346   */\n      0x40\n        /* \"#utility.yul\":5370:5434   */\n      tag_120\n        /* \"#utility.yul\":5426:5433   */\n      dup9\n        /* \"#utility.yul\":5417:5423   */\n      dup3\n        /* \"#utility.yul\":5406:5415   */\n      dup10\n        /* \"#utility.yul\":5402:5424   */\n      add\n        /* \"#utility.yul\":5370:5434   */\n      tag_58\n      jump\t// in\n    tag_120:\n        /* \"#utility.yul\":5360:5434   */\n      swap4\n      pop\n        /* \"#utility.yul\":5315:5444   */\n      pop\n        /* \"#utility.yul\":5483:5485   */\n      0x60\n        /* \"#utility.yul\":5509:5573   */\n      tag_121\n        /* \"#utility.yul\":5565:5572   */\n      dup9\n        /* \"#utility.yul\":5556:5562   */\n      dup3\n        /* \"#utility.yul\":5545:5554   */\n      dup10\n        /* \"#utility.yul\":5541:5563   */\n      add\n        /* \"#utility.yul\":5509:5573   */\n      tag_58\n      jump\t// in\n    tag_121:\n        /* \"#utility.yul\":5499:5573   */\n      swap3\n      pop\n        /* \"#utility.yul\":5454:5583   */\n      pop\n        /* \"#utility.yul\":5622:5625   */\n      0x80\n        /* \"#utility.yul\":5649:5712   */\n      tag_122\n        /* \"#utility.yul\":5704:5711   */\n      dup9\n        /* \"#utility.yul\":5695:5701   */\n      dup3\n        /* \"#utility.yul\":5684:5693   */\n      dup10\n        /* \"#utility.yul\":5680:5702   */\n      add\n        /* \"#utility.yul\":5649:5712   */\n      tag_54\n      jump\t// in\n    tag_122:\n        /* \"#utility.yul\":5639:5712   */\n      swap2\n      pop\n        /* \"#utility.yul\":5593:5722   */\n      pop\n        /* \"#utility.yul\":4758:5729   */\n      swap3\n      swap6\n      pop\n      swap3\n      swap6\n      swap1\n      swap4\n      pop\n      jump\t// out\n        /* \"#utility.yul\":5735:6726   */\n    tag_37:\n        /* \"#utility.yul\":5774:5781   */\n      0x00\n        /* \"#utility.yul\":5797:5816   */\n      tag_124\n        /* \"#utility.yul\":5814:5815   */\n      dup3\n        /* \"#utility.yul\":5797:5816   */\n      tag_55\n      jump\t// in\n    tag_124:\n        /* \"#utility.yul\":5792:5816   */\n      swap2\n      pop\n        /* \"#utility.yul\":5830:5849   */\n      tag_125\n        /* \"#utility.yul\":5847:5848   */\n      dup4\n        /* \"#utility.yul\":5830:5849   */\n      tag_55\n      jump\t// in\n    tag_125:\n        /* \"#utility.yul\":5825:5849   */\n      swap3\n      pop\n        /* \"#utility.yul\":6031:6032   */\n      dup3\n        /* \"#utility.yul\":5963:6029   */\n      0x7fffffffffffffffffffffffffffffffffffffffffffffffffffffffffffffff\n        /* \"#utility.yul\":5959:6033   */\n      div\n        /* \"#utility.yul\":5956:5957   */\n      dup3\n        /* \"#utility.yul\":5953:6034   */\n      gt\n        /* \"#utility.yul\":5948:5949   */\n      0x00\n        /* \"#utility.yul\":5945:5946   */\n      dup5\n        /* \"#utility.yul\":5941:5950   */\n      sgt\n        /* \"#utility.yul\":5937:5938   */\n      0x00\n        /* \"#utility.yul\":5934:5935   */\n      dup5\n        /* \"#utility.yul\":5930:5939   */\n      sgt\n        /* \"#utility.yul\":5926:5951   */\n      and\n        /* \"#utility.yul\":5922:6035   */\n      and\n        /* \"#utility.yul\":5919:6058   */\n      iszero\n      tag_126\n      jumpi\n        /* \"#utility.yul\":6038:6056   */\n      tag_127\n      tag_47\n      jump\t// in\n    tag_127:\n        /* \"#utility.yul\":5919:6058   */\n    tag_126:\n        /* \"#utility.yul\":6242:6243   */\n      dup2\n        /* \"#utility.yul\":6174:6240   */\n      0x8000000000000000000000000000000000000000000000000000000000000000\n        /* \"#utility.yul\":6169:6244   */\n      sdiv\n        /* \"#utility.yul\":6166:6167   */\n      dup4\n        /* \"#utility.yul\":6162:6245   */\n      slt\n        /* \"#utility.yul\":6157:6158   */\n      0x00\n        /* \"#utility.yul\":6154:6155   */\n      dup5\n        /* \"#utility.yul\":6150:6159   */\n      slt\n        /* \"#utility.yul\":6146:6147   */\n      0x00\n        /* \"#utility.yul\":6143:6144   */\n      dup5\n        /* \"#utility.yul\":6139:6148   */\n      sgt\n        /* \"#utility.yul\":6135:6160   */\n      and\n        /* \"#utility.yul\":6131:6246   */\n      and\n        /* \"#utility.yul\":6128:6269   */\n      iszero\n      tag_128\n      jumpi\n        /* \"#utility.yul\":6249:6267   */\n      tag_129\n      tag_47\n      jump\t// in\n    tag_129:\n        /* \"#utility.yul\":6128:6269   */\n    tag_128:\n        /* \"#utility.yul\":6453:6454   */\n      dup3\n        /* \"#utility.yul\":6385:6451   */\n      0x8000000000000000000000000000000000000000000000000000000000000000\n        /* \"#utility.yul\":6380:6455   */\n      sdiv\n        /* \"#utility.yul\":6377:6378   */\n      dup3\n        /* \"#utility.yul\":6373:6456   */\n      slt\n        /* \"#utility.yul\":6368:6369   */\n      0x00\n        /* \"#utility.yul\":6365:6366   */\n      dup5\n        /* \"#utility.yul\":6361:6370   */\n      sgt\n        /* \"#utility.yul\":6357:6358   */\n      0x00\n        /* \"#utility.yul\":6354:6355   */\n      dup5\n        /* \"#utility.yul\":6350:6359   */\n      slt\n        /* \"#utility.yul\":6346:6371   */\n      and\n        /* \"#utility.yul\":6342:6457   */\n      and\n        /* \"#utility.yul\":6339:6480   */\n      iszero\n      tag_130\n      jumpi\n        /* \"#utility.yul\":6460:6478   */\n      tag_131\n      tag_47\n      jump\t// in\n    tag_131:\n        /* \"#utility.yul\":6339:6480   */\n    tag_130:\n        /* \"#utility.yul\":6663:6664   */\n      dup3\n        /* \"#utility.yul\":6595:6661   */\n      0x7fffffffffffffffffffffffffffffffffffffffffffffffffffffffffffffff\n        /* \"#utility.yul\":6590:6665   */\n      sdiv\n        /* \"#utility.yul\":6587:6588   */\n      dup3\n        /* \"#utility.yul\":6583:6666   */\n      slt\n        /* \"#utility.yul\":6578:6579   */\n      0x00\n        /* \"#utility.yul\":6575:6576   */\n      dup5\n        /* \"#utility.yul\":6571:6580   */\n      slt\n        /* \"#utility.yul\":6567:6568   */\n      0x00\n        /* \"#utility.yul\":6564:6565   */\n      dup5\n        /* \"#utility.yul\":6560:6569   */\n      slt\n        /* \"#utility.yul\":6556:6581   */\n      and\n        /* \"#utility.yul\":6552:6667   */\n      and\n        /* \"#utility.yul\":6549:6690   */\n      iszero\n      tag_132\n      jumpi\n        /* \"#utility.yul\":6670:6688   */\n      tag_133\n      tag_47\n      jump\t// in\n    tag_133:\n        /* \"#utility.yul\":6549:6690   */\n    tag_132:\n        /* \"#utility.yul\":6718:6719   */\n      dup3\n        /* \"#utility.yul\":6715:6716   */\n      dup3\n        /* \"#utility.yul\":6711:6720   */\n      mul\n        /* \"#utility.yul\":6700:6720   */\n      swap1\n      pop\n        /* \"#utility.yul\":5735:6726   */\n      swap3\n      swap2\n      pop\n      pop\n      jump\t// out\n\n    auxdata: 0xa264697066735822122054022c3b1900721b25f85924f2d2f246d3c70e211a39024c20b3e1d5ff962c4764736f6c634300080d0033\n}\n",
				"bytecode": {
					"linkReferences": {},
					"object": "60806040526802b5e3af16b188000060005534801561001d57600080fd5b5061067a8061002d6000396000f3fe6080604052600436106100345760003560e01c80638a38389014610039578063b60d428814610076578063b62e3c5a14610094575b600080fd5b34801561004557600080fd5b50610060600480360381019061005b9190610232565b6100bf565b60405161006d919061026e565b60405180910390f35b61007e6100f9565b60405161008b91906102a4565b60405180910390f35b3480156100a057600080fd5b506100a961014e565b6040516100b6919061026e565b60405180910390f35b6000806100ca61014e565b90506000670de0b6b3a764000084836100e391906102ee565b6100ed9190610377565b90508092505050919050565b60008054610106346100bf565b1015610147576040517f08c379a000000000000000000000000000000000000000000000000000000000815260040161013e90610405565b60405180910390fd5b6001905090565b60008073d4a33860578de61dbabdc8bfdb98fd742fa7028e905060008173ffffffffffffffffffffffffffffffffffffffff1663feaf968c6040518163ffffffff1660e01b815260040160a060405180830381865afa1580156101b5573d6000803e3d6000fd5b505050506040513d601f19601f820116820180604052508101906101d991906104b2565b5050509150506402540be400816101f0919061052d565b9250505090565b600080fd5b6000819050919050565b61020f816101fc565b811461021a57600080fd5b50565b60008135905061022c81610206565b92915050565b600060208284031215610248576102476101f7565b5b60006102568482850161021d565b91505092915050565b610268816101fc565b82525050565b6000602082019050610283600083018461025f565b92915050565b60008115159050919050565b61029e81610289565b82525050565b60006020820190506102b96000830184610295565b92915050565b7f4e487b7100000000000000000000000000000000000000000000000000000000600052601160045260246000fd5b60006102f9826101fc565b9150610304836101fc565b9250817fffffffffffffffffffffffffffffffffffffffffffffffffffffffffffffffff048311821515161561033d5761033c6102bf565b5b828202905092915050565b7f4e487b7100000000000000000000000000000000000000000000000000000000600052601260045260246000fd5b6000610382826101fc565b915061038d836101fc565b92508261039d5761039c610348565b5b828204905092915050565b600082825260208201905092915050565b7f446f6e27742073656e64206d696e20616d6f756e740000000000000000000000600082015250565b60006103ef6015836103a8565b91506103fa826103b9565b602082019050919050565b6000602082019050818103600083015261041e816103e2565b9050919050565b600069ffffffffffffffffffff82169050919050565b61044481610425565b811461044f57600080fd5b50565b6000815190506104618161043b565b92915050565b6000819050919050565b61047a81610467565b811461048557600080fd5b50565b60008151905061049781610471565b92915050565b6000815190506104ac81610206565b92915050565b600080600080600060a086880312156104ce576104cd6101f7565b5b60006104dc88828901610452565b95505060206104ed88828901610488565b94505060406104fe8882890161049d565b935050606061050f8882890161049d565b925050608061052088828901610452565b9150509295509295909350565b600061053882610467565b915061054383610467565b9250827f7fffffffffffffffffffffffffffffffffffffffffffffffffffffffffffffff0482116000841360008413161615610582576105816102bf565b5b817f800000000000000000000000000000000000000000000000000000000000000005831260008412600084131616156105bf576105be6102bf565b5b827f800000000000000000000000000000000000000000000000000000000000000005821260008413600084121616156105fc576105fb6102bf565b5b827f7fffffffffffffffffffffffffffffffffffffffffffffffffffffffffffffff0582126000841260008412161615610639576106386102bf565b5b82820290509291505056fea264697066735822122054022c3b1900721b25f85924f2d2f246d3c70e211a39024c20b3e1d5ff962c4764736f6c634300080d0033",
					"opcodes": "PUSH1 0x80 PUSH1 0x40 MSTORE PUSH9 0x2B5E3AF16B1880000 PUSH1 0x0 SSTORE CALLVALUE DUP1 ISZERO PUSH2 0x1D JUMPI PUSH1 0x0 DUP1 REVERT JUMPDEST POP PUSH2 0x67A DUP1 PUSH2 0x2D PUSH1 0x0 CODECOPY PUSH1 0x0 RETURN INVALID PUSH1 0x80 PUSH1 0x40 MSTORE PUSH1 0x4 CALLDATASIZE LT PUSH2 0x34 JUMPI PUSH1 0x0 CALLDATALOAD PUSH1 0xE0 SHR DUP1 PUSH4 0x8A383890 EQ PUSH2 0x39 JUMPI DUP1 PUSH4 0xB60D4288 EQ PUSH2 0x76 JUMPI DUP1 PUSH4 0xB62E3C5A EQ PUSH2 0x94 JUMPI JUMPDEST PUSH1 0x0 DUP1 REVERT JUMPDEST CALLVALUE DUP1 ISZERO PUSH2 0x45 JUMPI PUSH1 0x0 DUP1 REVERT JUMPDEST POP PUSH2 0x60 PUSH1 0x4 DUP1 CALLDATASIZE SUB DUP2 ADD SWAP1 PUSH2 0x5B SWAP2 SWAP1 PUSH2 0x232 JUMP JUMPDEST PUSH2 0xBF JUMP JUMPDEST PUSH1 0x40 MLOAD PUSH2 0x6D SWAP2 SWAP1 PUSH2 0x26E JUMP JUMPDEST PUSH1 0x40 MLOAD DUP1 SWAP2 SUB SWAP1 RETURN JUMPDEST PUSH2 0x7E PUSH2 0xF9 JUMP JUMPDEST PUSH1 0x40 MLOAD PUSH2 0x8B SWAP2 SWAP1 PUSH2 0x2A4 JUMP JUMPDEST PUSH1 0x40 MLOAD DUP1 SWAP2 SUB SWAP1 RETURN JUMPDEST CALLVALUE DUP1 ISZERO PUSH2 0xA0 JUMPI PUSH1 0x0 DUP1 REVERT JUMPDEST POP PUSH2 0xA9 PUSH2 0x14E JUMP JUMPDEST PUSH1 0x40 MLOAD PUSH2 0xB6 SWAP2 SWAP1 PUSH2 0x26E JUMP JUMPDEST PUSH1 0x40 MLOAD DUP1 SWAP2 SUB SWAP1 RETURN JUMPDEST PUSH1 0x0 DUP1 PUSH2 0xCA PUSH2 0x14E JUMP JUMPDEST SWAP1 POP PUSH1 0x0 PUSH8 0xDE0B6B3A7640000 DUP5 DUP4 PUSH2 0xE3 SWAP2 SWAP1 PUSH2 0x2EE JUMP JUMPDEST PUSH2 0xED SWAP2 SWAP1 PUSH2 0x377 JUMP JUMPDEST SWAP1 POP DUP1 SWAP3 POP POP POP SWAP2 SWAP1 POP JUMP JUMPDEST PUSH1 0x0 DUP1 SLOAD PUSH2 0x106 CALLVALUE PUSH2 0xBF JUMP JUMPDEST LT ISZERO PUSH2 0x147 JUMPI PUSH1 0x40 MLOAD PUSH32 0x8C379A000000000000000000000000000000000000000000000000000000000 DUP2 MSTORE PUSH1 0x4 ADD PUSH2 0x13E SWAP1 PUSH2 0x405 JUMP JUMPDEST PUSH1 0x40 MLOAD DUP1 SWAP2 SUB SWAP1 REVERT JUMPDEST PUSH1 0x1 SWAP1 POP SWAP1 JUMP JUMPDEST PUSH1 0x0 DUP1 PUSH20 0xD4A33860578DE61DBABDC8BFDB98FD742FA7028E SWAP1 POP PUSH1 0x0 DUP2 PUSH20 0xFFFFFFFFFFFFFFFFFFFFFFFFFFFFFFFFFFFFFFFF AND PUSH4 0xFEAF968C PUSH1 0x40 MLOAD DUP2 PUSH4 0xFFFFFFFF AND PUSH1 0xE0 SHL DUP2 MSTORE PUSH1 0x4 ADD PUSH1 0xA0 PUSH1 0x40 MLOAD DUP1 DUP4 SUB DUP2 DUP7 GAS STATICCALL ISZERO DUP1 ISZERO PUSH2 0x1B5 JUMPI RETURNDATASIZE PUSH1 0x0 DUP1 RETURNDATACOPY RETURNDATASIZE PUSH1 0x0 REVERT JUMPDEST POP POP POP POP PUSH1 0x40 MLOAD RETURNDATASIZE PUSH1 0x1F NOT PUSH1 0x1F DUP3 ADD AND DUP3 ADD DUP1 PUSH1 0x40 MSTORE POP DUP2 ADD SWAP1 PUSH2 0x1D9 SWAP2 SWAP1 PUSH2 0x4B2 JUMP JUMPDEST POP POP POP SWAP2 POP POP PUSH5 0x2540BE400 DUP2 PUSH2 0x1F0 SWAP2 SWAP1 PUSH2 0x52D JUMP JUMPDEST SWAP3 POP POP POP SWAP1 JUMP JUMPDEST PUSH1 0x0 DUP1 REVERT JUMPDEST PUSH1 0x0 DUP2 SWAP1 POP SWAP2 SWAP1 POP JUMP JUMPDEST PUSH2 0x20F DUP2 PUSH2 0x1FC JUMP JUMPDEST DUP2 EQ PUSH2 0x21A JUMPI PUSH1 0x0 DUP1 REVERT JUMPDEST POP JUMP JUMPDEST PUSH1 0x0 DUP2 CALLDATALOAD SWAP1 POP PUSH2 0x22C DUP2 PUSH2 0x206 JUMP JUMPDEST SWAP3 SWAP2 POP POP JUMP JUMPDEST PUSH1 0x0 PUSH1 0x20 DUP3 DUP5 SUB SLT ISZERO PUSH2 0x248 JUMPI PUSH2 0x247 PUSH2 0x1F7 JUMP JUMPDEST JUMPDEST PUSH1 0x0 PUSH2 0x256 DUP5 DUP3 DUP6 ADD PUSH2 0x21D JUMP JUMPDEST SWAP2 POP POP SWAP3 SWAP2 POP POP JUMP JUMPDEST PUSH2 0x268 DUP2 PUSH2 0x1FC JUMP JUMPDEST DUP3 MSTORE POP POP JUMP JUMPDEST PUSH1 0x0 PUSH1 0x20 DUP3 ADD SWAP1 POP PUSH2 0x283 PUSH1 0x0 DUP4 ADD DUP5 PUSH2 0x25F JUMP JUMPDEST SWAP3 SWAP2 POP POP JUMP JUMPDEST PUSH1 0x0 DUP2 ISZERO ISZERO SWAP1 POP SWAP2 SWAP1 POP JUMP JUMPDEST PUSH2 0x29E DUP2 PUSH2 0x289 JUMP JUMPDEST DUP3 MSTORE POP POP JUMP JUMPDEST PUSH1 0x0 PUSH1 0x20 DUP3 ADD SWAP1 POP PUSH2 0x2B9 PUSH1 0x0 DUP4 ADD DUP5 PUSH2 0x295 JUMP JUMPDEST SWAP3 SWAP2 POP POP JUMP JUMPDEST PUSH32 0x4E487B7100000000000000000000000000000000000000000000000000000000 PUSH1 0x0 MSTORE PUSH1 0x11 PUSH1 0x4 MSTORE PUSH1 0x24 PUSH1 0x0 REVERT JUMPDEST PUSH1 0x0 PUSH2 0x2F9 DUP3 PUSH2 0x1FC JUMP JUMPDEST SWAP2 POP PUSH2 0x304 DUP4 PUSH2 0x1FC JUMP JUMPDEST SWAP3 POP DUP2 PUSH32 0xFFFFFFFFFFFFFFFFFFFFFFFFFFFFFFFFFFFFFFFFFFFFFFFFFFFFFFFFFFFFFFFF DIV DUP4 GT DUP3 ISZERO ISZERO AND ISZERO PUSH2 0x33D JUMPI PUSH2 0x33C PUSH2 0x2BF JUMP JUMPDEST JUMPDEST DUP3 DUP3 MUL SWAP1 POP SWAP3 SWAP2 POP POP JUMP JUMPDEST PUSH32 0x4E487B7100000000000000000000000000000000000000000000000000000000 PUSH1 0x0 MSTORE PUSH1 0x12 PUSH1 0x4 MSTORE PUSH1 0x24 PUSH1 0x0 REVERT JUMPDEST PUSH1 0x0 PUSH2 0x382 DUP3 PUSH2 0x1FC JUMP JUMPDEST SWAP2 POP PUSH2 0x38D DUP4 PUSH2 0x1FC JUMP JUMPDEST SWAP3 POP DUP3 PUSH2 0x39D JUMPI PUSH2 0x39C PUSH2 0x348 JUMP JUMPDEST JUMPDEST DUP3 DUP3 DIV SWAP1 POP SWAP3 SWAP2 POP POP JUMP JUMPDEST PUSH1 0x0 DUP3 DUP3 MSTORE PUSH1 0x20 DUP3 ADD SWAP1 POP SWAP3 SWAP2 POP POP JUMP JUMPDEST PUSH32 0x446F6E27742073656E64206D696E20616D6F756E740000000000000000000000 PUSH1 0x0 DUP3 ADD MSTORE POP JUMP JUMPDEST PUSH1 0x0 PUSH2 0x3EF PUSH1 0x15 DUP4 PUSH2 0x3A8 JUMP JUMPDEST SWAP2 POP PUSH2 0x3FA DUP3 PUSH2 0x3B9 JUMP JUMPDEST PUSH1 0x20 DUP3 ADD SWAP1 POP SWAP2 SWAP1 POP JUMP JUMPDEST PUSH1 0x0 PUSH1 0x20 DUP3 ADD SWAP1 POP DUP2 DUP2 SUB PUSH1 0x0 DUP4 ADD MSTORE PUSH2 0x41E DUP2 PUSH2 0x3E2 JUMP JUMPDEST SWAP1 POP SWAP2 SWAP1 POP JUMP JUMPDEST PUSH1 0x0 PUSH10 0xFFFFFFFFFFFFFFFFFFFF DUP3 AND SWAP1 POP SWAP2 SWAP1 POP JUMP JUMPDEST PUSH2 0x444 DUP2 PUSH2 0x425 JUMP JUMPDEST DUP2 EQ PUSH2 0x44F JUMPI PUSH1 0x0 DUP1 REVERT JUMPDEST POP JUMP JUMPDEST PUSH1 0x0 DUP2 MLOAD SWAP1 POP PUSH2 0x461 DUP2 PUSH2 0x43B JUMP JUMPDEST SWAP3 SWAP2 POP POP JUMP JUMPDEST PUSH1 0x0 DUP2 SWAP1 POP SWAP2 SWAP1 POP JUMP JUMPDEST PUSH2 0x47A DUP2 PUSH2 0x467 JUMP JUMPDEST DUP2 EQ PUSH2 0x485 JUMPI PUSH1 0x0 DUP1 REVERT JUMPDEST POP JUMP JUMPDEST PUSH1 0x0 DUP2 MLOAD SWAP1 POP PUSH2 0x497 DUP2 PUSH2 0x471 JUMP JUMPDEST SWAP3 SWAP2 POP POP JUMP JUMPDEST PUSH1 0x0 DUP2 MLOAD SWAP1 POP PUSH2 0x4AC DUP2 PUSH2 0x206 JUMP JUMPDEST SWAP3 SWAP2 POP POP JUMP JUMPDEST PUSH1 0x0 DUP1 PUSH1 0x0 DUP1 PUSH1 0x0 PUSH1 0xA0 DUP7 DUP9 SUB SLT ISZERO PUSH2 0x4CE JUMPI PUSH2 0x4CD PUSH2 0x1F7 JUMP JUMPDEST JUMPDEST PUSH1 0x0 PUSH2 0x4DC DUP9 DUP3 DUP10 ADD PUSH2 0x452 JUMP JUMPDEST SWAP6 POP POP PUSH1 0x20 PUSH2 0x4ED DUP9 DUP3 DUP10 ADD PUSH2 0x488 JUMP JUMPDEST SWAP5 POP POP PUSH1 0x40 PUSH2 0x4FE DUP9 DUP3 DUP10 ADD PUSH2 0x49D JUMP JUMPDEST SWAP4 POP POP PUSH1 0x60 PUSH2 0x50F DUP9 DUP3 DUP10 ADD PUSH2 0x49D JUMP JUMPDEST SWAP3 POP POP PUSH1 0x80 PUSH2 0x520 DUP9 DUP3 DUP10 ADD PUSH2 0x452 JUMP JUMPDEST SWAP2 POP POP SWAP3 SWAP6 POP SWAP3 SWAP6 SWAP1 SWAP4 POP JUMP JUMPDEST PUSH1 0x0 PUSH2 0x538 DUP3 PUSH2 0x467 JUMP JUMPDEST SWAP2 POP PUSH2 0x543 DUP4 PUSH2 0x467 JUMP JUMPDEST SWAP3 POP DUP3 PUSH32 0x7FFFFFFFFFFFFFFFFFFFFFFFFFFFFFFFFFFFFFFFFFFFFFFFFFFFFFFFFFFFFFFF DIV DUP3 GT PUSH1 0x0 DUP5 SGT PUSH1 0x0 DUP5 SGT AND AND ISZERO PUSH2 0x582 JUMPI PUSH2 0x581 PUSH2 0x2BF JUMP JUMPDEST JUMPDEST DUP2 PUSH32 0x8000000000000000000000000000000000000000000000000000000000000000 SDIV DUP4 SLT PUSH1 0x0 DUP5 SLT PUSH1 0x0 DUP5 SGT AND AND ISZERO PUSH2 0x5BF JUMPI PUSH2 0x5BE PUSH2 0x2BF JUMP JUMPDEST JUMPDEST DUP3 PUSH32 0x8000000000000000000000000000000000000000000000000000000000000000 SDIV DUP3 SLT PUSH1 0x0 DUP5 SGT PUSH1 0x0 DUP5 SLT AND AND ISZERO PUSH2 0x5FC JUMPI PUSH2 0x5FB PUSH2 0x2BF JUMP JUMPDEST JUMPDEST DUP3 PUSH32 0x7FFFFFFFFFFFFFFFFFFFFFFFFFFFFFFFFFFFFFFFFFFFFFFFFFFFFFFFFFFFFFFF SDIV DUP3 SLT PUSH1 0x0 DUP5 SLT PUSH1 0x0 DUP5 SLT AND AND ISZERO PUSH2 0x639 JUMPI PUSH2 0x638 PUSH2 0x2BF JUMP JUMPDEST JUMPDEST DUP3 DUP3 MUL SWAP1 POP SWAP3 SWAP2 POP POP JUMP INVALID LOG2 PUSH5 0x6970667358 0x22 SLT KECCAK256 SLOAD MUL 0x2C EXTCODESIZE NOT STOP PUSH19 0x1B25F85924F2D2F246D3C70E211A39024C20B3 0xE1 0xD5 SELFDESTRUCT SWAP7 0x2C SELFBALANCE PUSH5 0x736F6C6343 STOP ADDMOD 0xD STOP CALLER "
				},
				"gasEstimates": {
					"creation": {
						"codeDepositCost": "331600",
						"executionCost": "22474",
						"totalCost": "354074"
					},
					"external": {
						"convertEthAmountInUSD(uint256)": "infinite",
						"fund()": "infinite",
						"getETHPriceInUSD()": "infinite"
					}
				},
				"methodIdentifiers": {
					"convertEthAmountInUSD(uint256)": "8a383890",
					"fund()": "b60d4288",
					"getETHPriceInUSD()": "b62e3c5a"
				}
			},
			"storageLayout": {
				"storage": [
					{
						"astId": 54,
						"contract": "FundMe.sol:FundMe",
						"label": "minimumUSD",
						"offset": 0,
						"slot": "0",
						"type": "t_uint256"
					}
				],
				"types": {
					"t_uint256": {
						"encoding": "inplace",
						"label": "uint256",
						"numberOfBytes": "32"
					}
				}
			},
			"userdoc": {
				"kind": "user",
				"methods": {
					"getETHPriceInUSD()": {
						"notice": "Getting the current 1 ETH value in USD  from chainlink "
					}
				},
				"version": 1
			}
		}
	}
}