{
	"data": {
		"bytecode": {
			"linkReferences": {},
			"object": "60806040526802b5e3af16b188000060005534801561001d57600080fd5b5061067a8061002d6000396000f3fe6080604052600436106100345760003560e01c80638a38389014610039578063b60d428814610076578063b62e3c5a14610094575b600080fd5b34801561004557600080fd5b50610060600480360381019061005b9190610232565b6100bf565b60405161006d919061026e565b60405180910390f35b61007e6100f9565b60405161008b91906102a4565b60405180910390f35b3480156100a057600080fd5b506100a961014e565b6040516100b6919061026e565b60405180910390f35b6000806100ca61014e565b90506000670de0b6b3a764000084836100e391906102ee565b6100ed9190610377565b90508092505050919050565b60008054610106346100bf565b1015610147576040517f08c379a000000000000000000000000000000000000000000000000000000000815260040161013e90610405565b60405180910390fd5b6001905090565b60008073d4a33860578de61dbabdc8bfdb98fd742fa7028e905060008173ffffffffffffffffffffffffffffffffffffffff1663feaf968c6040518163ffffffff1660e01b815260040160a060405180830381865afa1580156101b5573d6000803e3d6000fd5b505050506040513d601f19601f820116820180604052508101906101d991906104b2565b5050509150506402540be400816101f0919061052d565b9250505090565b600080fd5b6000819050919050565b61020f816101fc565b811461021a57600080fd5b50565b60008135905061022c81610206565b92915050565b600060208284031215610248576102476101f7565b5b60006102568482850161021d565b91505092915050565b610268816101fc565b82525050565b6000602082019050610283600083018461025f565b92915050565b60008115159050919050565b61029e81610289565b82525050565b60006020820190506102b96000830184610295565b92915050565b7f4e487b7100000000000000000000000000000000000000000000000000000000600052601160045260246000fd5b60006102f9826101fc565b9150610304836101fc565b9250817fffffffffffffffffffffffffffffffffffffffffffffffffffffffffffffffff048311821515161561033d5761033c6102bf565b5b828202905092915050565b7f4e487b7100000000000000000000000000000000000000000000000000000000600052601260045260246000fd5b6000610382826101fc565b915061038d836101fc565b92508261039d5761039c610348565b5b828204905092915050565b600082825260208201905092915050565b7f446f6e27742073656e64206d696e20616d6f756e740000000000000000000000600082015250565b60006103ef6015836103a8565b91506103fa826103b9565b602082019050919050565b6000602082019050818103600083015261041e816103e2565b9050919050565b600069ffffffffffffffffffff82169050919050565b61044481610425565b811461044f57600080fd5b50565b6000815190506104618161043b565b92915050565b6000819050919050565b61047a81610467565b811461048557600080fd5b50565b60008151905061049781610471565b92915050565b6000815190506104ac81610206565b92915050565b600080600080600060a086880312156104ce576104cd6101f7565b5b60006104dc88828901610452565b95505060206104ed88828901610488565b94505060406104fe8882890161049d565b935050606061050f8882890161049d565b925050608061052088828901610452565b9150509295509295909350565b600061053882610467565b915061054383610467565b9250827f7fffffffffffffffffffffffffffffffffffffffffffffffffffffffffffffff0482116000841360008413161615610582576105816102bf565b5b817f800000000000000000000000000000000000000000000000000000000000000005831260008412600084131616156105bf576105be6102bf565b5b827f800000000000000000000000000000000000000000000000000000000000000005821260008413600084121616156105fc576105fb6102bf565b5b827f7fffffffffffffffffffffffffffffffffffffffffffffffffffffffffffffff0582126000841260008412161615610639576106386102bf565b5b82820290509291505056fea2646970667358221220dd6d0a5586cf7c3b9bcb20d0d2a815db0aa95673618dde0041f1cce01f7f7a4964736f6c63430008100033",
			"opcodes": "PUSH1 0x80 PUSH1 0x40 MSTORE PUSH9 0x2B5E3AF16B1880000 PUSH1 0x0 SSTORE CALLVALUE DUP1 ISZERO PUSH2 0x1D JUMPI PUSH1 0x0 DUP1 REVERT JUMPDEST POP PUSH2 0x67A DUP1 PUSH2 0x2D PUSH1 0x0 CODECOPY PUSH1 0x0 RETURN INVALID PUSH1 0x80 PUSH1 0x40 MSTORE PUSH1 0x4 CALLDATASIZE LT PUSH2 0x34 JUMPI PUSH1 0x0 CALLDATALOAD PUSH1 0xE0 SHR DUP1 PUSH4 0x8A383890 EQ PUSH2 0x39 JUMPI DUP1 PUSH4 0xB60D4288 EQ PUSH2 0x76 JUMPI DUP1 PUSH4 0xB62E3C5A EQ PUSH2 0x94 JUMPI JUMPDEST PUSH1 0x0 DUP1 REVERT JUMPDEST CALLVALUE DUP1 ISZERO PUSH2 0x45 JUMPI PUSH1 0x0 DUP1 REVERT JUMPDEST POP PUSH2 0x60 PUSH1 0x4 DUP1 CALLDATASIZE SUB DUP2 ADD SWAP1 PUSH2 0x5B SWAP2 SWAP1 PUSH2 0x232 JUMP JUMPDEST PUSH2 0xBF JUMP JUMPDEST PUSH1 0x40 MLOAD PUSH2 0x6D SWAP2 SWAP1 PUSH2 0x26E JUMP JUMPDEST PUSH1 0x40 MLOAD DUP1 SWAP2 SUB SWAP1 RETURN JUMPDEST PUSH2 0x7E PUSH2 0xF9 JUMP JUMPDEST PUSH1 0x40 MLOAD PUSH2 0x8B SWAP2 SWAP1 PUSH2 0x2A4 JUMP JUMPDEST PUSH1 0x40 MLOAD DUP1 SWAP2 SUB SWAP1 RETURN JUMPDEST CALLVALUE DUP1 ISZERO PUSH2 0xA0 JUMPI PUSH1 0x0 DUP1 REVERT JUMPDEST POP PUSH2 0xA9 PUSH2 0x14E JUMP JUMPDEST PUSH1 0x40 MLOAD PUSH2 0xB6 SWAP2 SWAP1 PUSH2 0x26E JUMP JUMPDEST PUSH1 0x40 MLOAD DUP1 SWAP2 SUB SWAP1 RETURN JUMPDEST PUSH1 0x0 DUP1 PUSH2 0xCA PUSH2 0x14E JUMP JUMPDEST SWAP1 POP PUSH1 0x0 PUSH8 0xDE0B6B3A7640000 DUP5 DUP4 PUSH2 0xE3 SWAP2 SWAP1 PUSH2 0x2EE JUMP JUMPDEST PUSH2 0xED SWAP2 SWAP1 PUSH2 0x377 JUMP JUMPDEST SWAP1 POP DUP1 SWAP3 POP POP POP SWAP2 SWAP1 POP JUMP JUMPDEST PUSH1 0x0 DUP1 SLOAD PUSH2 0x106 CALLVALUE PUSH2 0xBF JUMP JUMPDEST LT ISZERO PUSH2 0x147 JUMPI PUSH1 0x40 MLOAD PUSH32 0x8C379A000000000000000000000000000000000000000000000000000000000 DUP2 MSTORE PUSH1 0x4 ADD PUSH2 0x13E SWAP1 PUSH2 0x405 JUMP JUMPDEST PUSH1 0x40 MLOAD DUP1 SWAP2 SUB SWAP1 REVERT JUMPDEST PUSH1 0x1 SWAP1 POP SWAP1 JUMP JUMPDEST PUSH1 0x0 DUP1 PUSH20 0xD4A33860578DE61DBABDC8BFDB98FD742FA7028E SWAP1 POP PUSH1 0x0 DUP2 PUSH20 0xFFFFFFFFFFFFFFFFFFFFFFFFFFFFFFFFFFFFFFFF AND PUSH4 0xFEAF968C PUSH1 0x40 MLOAD DUP2 PUSH4 0xFFFFFFFF AND PUSH1 0xE0 SHL DUP2 MSTORE PUSH1 0x4 ADD PUSH1 0xA0 PUSH1 0x40 MLOAD DUP1 DUP4 SUB DUP2 DUP7 GAS STATICCALL ISZERO DUP1 ISZERO PUSH2 0x1B5 JUMPI RETURNDATASIZE PUSH1 0x0 DUP1 RETURNDATACOPY RETURNDATASIZE PUSH1 0x0 REVERT JUMPDEST POP POP POP POP PUSH1 0x40 MLOAD RETURNDATASIZE PUSH1 0x1F NOT PUSH1 0x1F DUP3 ADD AND DUP3 ADD DUP1 PUSH1 0x40 MSTORE POP DUP2 ADD SWAP1 PUSH2 0x1D9 SWAP2 SWAP1 PUSH2 0x4B2 JUMP JUMPDEST POP POP POP SWAP2 POP POP PUSH5 0x2540BE400 DUP2 PUSH2 0x1F0 SWAP2 SWAP1 PUSH2 0x52D JUMP JUMPDEST SWAP3 POP POP POP SWAP1 JUMP JUMPDEST PUSH1 0x0 DUP1 REVERT JUMPDEST PUSH1 0x0 DUP2 SWAP1 POP SWAP2 SWAP1 POP JUMP JUMPDEST PUSH2 0x20F DUP2 PUSH2 0x1FC JUMP JUMPDEST DUP2 EQ PUSH2 0x21A JUMPI PUSH1 0x0 DUP1 REVERT JUMPDEST POP JUMP JUMPDEST PUSH1 0x0 DUP2 CALLDATALOAD SWAP1 POP PUSH2 0x22C DUP2 PUSH2 0x206 JUMP JUMPDEST SWAP3 SWAP2 POP POP JUMP JUMPDEST PUSH1 0x0 PUSH1 0x20 DUP3 DUP5 SUB SLT ISZERO PUSH2 0x248 JUMPI PUSH2 0x247 PUSH2 0x1F7 JUMP JUMPDEST JUMPDEST PUSH1 0x0 PUSH2 0x256 DUP5 DUP3 DUP6 ADD PUSH2 0x21D JUMP JUMPDEST SWAP2 POP POP SWAP3 SWAP2 POP POP JUMP JUMPDEST PUSH2 0x268 DUP2 PUSH2 0x1FC JUMP JUMPDEST DUP3 MSTORE POP POP JUMP JUMPDEST PUSH1 0x0 PUSH1 0x20 DUP3 ADD SWAP1 POP PUSH2 0x283 PUSH1 0x0 DUP4 ADD DUP5 PUSH2 0x25F JUMP JUMPDEST SWAP3 SWAP2 POP POP JUMP JUMPDEST PUSH1 0x0 DUP2 ISZERO ISZERO SWAP1 POP SWAP2 SWAP1 POP JUMP JUMPDEST PUSH2 0x29E DUP2 PUSH2 0x289 JUMP JUMPDEST DUP3 MSTORE POP POP JUMP JUMPDEST PUSH1 0x0 PUSH1 0x20 DUP3 ADD SWAP1 POP PUSH2 0x2B9 PUSH1 0x0 DUP4 ADD DUP5 PUSH2 0x295 JUMP JUMPDEST SWAP3 SWAP2 POP POP JUMP JUMPDEST PUSH32 0x4E487B7100000000000000000000000000000000000000000000000000000000 PUSH1 0x0 MSTORE PUSH1 0x11 PUSH1 0x4 MSTORE PUSH1 0x24 PUSH1 0x0 REVERT JUMPDEST PUSH1 0x0 PUSH2 0x2F9 DUP3 PUSH2 0x1FC JUMP JUMPDEST SWAP2 POP PUSH2 0x304 DUP4 PUSH2 0x1FC JUMP JUMPDEST SWAP3 POP DUP2 PUSH32 0xFFFFFFFFFFFFFFFFFFFFFFFFFFFFFFFFFFFFFFFFFFFFFFFFFFFFFFFFFFFFFFFF DIV DUP4 GT DUP3 ISZERO ISZERO AND ISZERO PUSH2 0x33D JUMPI PUSH2 0x33C PUSH2 0x2BF JUMP JUMPDEST JUMPDEST DUP3 DUP3 MUL SWAP1 POP SWAP3 SWAP2 POP POP JUMP JUMPDEST PUSH32 0x4E487B7100000000000000000000000000000000000000000000000000000000 PUSH1 0x0 MSTORE PUSH1 0x12 PUSH1 0x4 MSTORE PUSH1 0x24 PUSH1 0x0 REVERT JUMPDEST PUSH1 0x0 PUSH2 0x382 DUP3 PUSH2 0x1FC JUMP JUMPDEST SWAP2 POP PUSH2 0x38D DUP4 PUSH2 0x1FC JUMP JUMPDEST SWAP3 POP DUP3 PUSH2 0x39D JUMPI PUSH2 0x39C PUSH2 0x348 JUMP JUMPDEST JUMPDEST DUP3 DUP3 DIV SWAP1 POP SWAP3 SWAP2 POP POP JUMP JUMPDEST PUSH1 0x0 DUP3 DUP3 MSTORE PUSH1 0x20 DUP3 ADD SWAP1 POP SWAP3 SWAP2 POP POP JUMP JUMPDEST PUSH32 0x446F6E27742073656E64206D696E20616D6F756E740000000000000000000000 PUSH1 0x0 DUP3 ADD MSTORE POP JUMP JUMPDEST PUSH1 0x0 PUSH2 0x3EF PUSH1 0x15 DUP4 PUSH2 0x3A8 JUMP JUMPDEST SWAP2 POP PUSH2 0x3FA DUP3 PUSH2 0x3B9 JUMP JUMPDEST PUSH1 0x20 DUP3 ADD SWAP1 POP SWAP2 SWAP1 POP JUMP JUMPDEST PUSH1 0x0 PUSH1 0x20 DUP3 ADD SWAP1 POP DUP2 DUP2 SUB PUSH1 0x0 DUP4 ADD MSTORE PUSH2 0x41E DUP2 PUSH2 0x3E2 JUMP JUMPDEST SWAP1 POP SWAP2 SWAP1 POP JUMP JUMPDEST PUSH1 0x0 PUSH10 0xFFFFFFFFFFFFFFFFFFFF DUP3 AND SWAP1 POP SWAP2 SWAP1 POP JUMP JUMPDEST PUSH2 0x444 DUP2 PUSH2 0x425 JUMP JUMPDEST DUP2 EQ PUSH2 0x44F JUMPI PUSH1 0x0 DUP1 REVERT JUMPDEST POP JUMP JUMPDEST PUSH1 0x0 DUP2 MLOAD SWAP1 POP PUSH2 0x461 DUP2 PUSH2 0x43B JUMP JUMPDEST SWAP3 SWAP2 POP POP JUMP JUMPDEST PUSH1 0x0 DUP2 SWAP1 POP SWAP2 SWAP1 POP JUMP JUMPDEST PUSH2 0x47A DUP2 PUSH2 0x467 JUMP JUMPDEST DUP2 EQ PUSH2 0x485 JUMPI PUSH1 0x0 DUP1 REVERT JUMPDEST POP JUMP JUMPDEST PUSH1 0x0 DUP2 MLOAD SWAP1 POP PUSH2 0x497 DUP2 PUSH2 0x471 JUMP JUMPDEST SWAP3 SWAP2 POP POP JUMP JUMPDEST PUSH1 0x0 DUP2 MLOAD SWAP1 POP PUSH2 0x4AC DUP2 PUSH2 0x206 JUMP JUMPDEST SWAP3 SWAP2 POP POP JUMP JUMPDEST PUSH1 0x0 DUP1 PUSH1 0x0 DUP1 PUSH1 0x0 PUSH1 0xA0 DUP7 DUP9 SUB SLT ISZERO PUSH2 0x4CE JUMPI PUSH2 0x4CD PUSH2 0x1F7 JUMP JUMPDEST JUMPDEST PUSH1 0x0 PUSH2 0x4DC DUP9 DUP3 DUP10 ADD PUSH2 0x452 JUMP JUMPDEST SWAP6 POP POP PUSH1 0x20 PUSH2 0x4ED DUP9 DUP3 DUP10 ADD PUSH2 0x488 JUMP JUMPDEST SWAP5 POP POP PUSH1 0x40 PUSH2 0x4FE DUP9 DUP3 DUP10 ADD PUSH2 0x49D JUMP JUMPDEST SWAP4 POP POP PUSH1 0x60 PUSH2 0x50F DUP9 DUP3 DUP10 ADD PUSH2 0x49D JUMP JUMPDEST SWAP3 POP POP PUSH1 0x80 PUSH2 0x520 DUP9 DUP3 DUP10 ADD PUSH2 0x452 JUMP JUMPDEST SWAP2 POP POP SWAP3 SWAP6 POP SWAP3 SWAP6 SWAP1 SWAP4 POP JUMP JUMPDEST PUSH1 0x0 PUSH2 0x538 DUP3 PUSH2 0x467 JUMP JUMPDEST SWAP2 POP PUSH2 0x543 DUP4 PUSH2 0x467 JUMP JUMPDEST SWAP3 POP DUP3 PUSH32 0x7FFFFFFFFFFFFFFFFFFFFFFFFFFFFFFFFFFFFFFFFFFFFFFFFFFFFFFFFFFFFFFF DIV DUP3 GT PUSH1 0x0 DUP5 SGT PUSH1 0x0 DUP5 SGT AND AND ISZERO PUSH2 0x582 JUMPI PUSH2 0x581 PUSH2 0x2BF JUMP JUMPDEST JUMPDEST DUP2 PUSH32 0x8000000000000000000000000000000000000000000000000000000000000000 SDIV DUP4 SLT PUSH1 0x0 DUP5 SLT PUSH1 0x0 DUP5 SGT AND AND ISZERO PUSH2 0x5BF JUMPI PUSH2 0x5BE PUSH2 0x2BF JUMP JUMPDEST JUMPDEST DUP3 PUSH32 0x8000000000000000000000000000000000000000000000000000000000000000 SDIV DUP3 SLT PUSH1 0x0 DUP5 SGT PUSH1 0x0 DUP5 SLT AND AND ISZERO PUSH2 0x5FC JUMPI PUSH2 0x5FB PUSH2 0x2BF JUMP JUMPDEST JUMPDEST DUP3 PUSH32 0x7FFFFFFFFFFFFFFFFFFFFFFFFFFFFFFFFFFFFFFFFFFFFFFFFFFFFFFFFFFFFFFF SDIV DUP3 SLT PUSH1 0x0 DUP5 SLT PUSH1 0x0 DUP5 SLT AND AND ISZERO PUSH2 0x639 JUMPI PUSH2 0x638 PUSH2 0x2BF JUMP JUMPDEST JUMPDEST DUP3 DUP3 MUL SWAP1 POP SWAP3 SWAP2 POP POP JUMP INVALID LOG2 PUSH5 0x6970667358 0x22 SLT KECCAK256 0xDD PUSH14 0xA5586CF7C3B9BCB20D0D2A815DB EXP 0xA9 JUMP PUSH20 0x618DDE0041F1CCE01F7F7A4964736F6C63430008 LT STOP CALLER "
		},
		"gasEstimates": {
			"creation": {
				"codeDepositCost": "331600",
				"executionCost": "22474",
				"totalCost": "354074"
			},
			"external": {
				"convertEthAmountInUSD(uint256)": "infinite",
				"fund()": "infinite",
				"getETHPriceInUSD()": "infinite"
			}
		},
		"methodIdentifiers": {
			"convertEthAmountInUSD(uint256)": "8a383890",
			"fund()": "b60d4288",
			"getETHPriceInUSD()": "b62e3c5a"
		}
	},
	"abi": [
		{
			"inputs": [
				{
					"internalType": "uint256",
					"name": "ethAmount",
					"type": "uint256"
				}
			],
			"name": "convertEthAmountInUSD",
			"outputs": [
				{
					"internalType": "uint256",
					"name": "",
					"type": "uint256"
				}
			],
			"stateMutability": "nonpayable",
			"type": "function"
		},
		{
			"inputs": [],
			"name": "fund",
			"outputs": [
				{
					"internalType": "bool",
					"name": "",
					"type": "bool"
				}
			],
			"stateMutability": "payable",
			"type": "function"
		},
		{
			"inputs": [],
			"name": "getETHPriceInUSD",
			"outputs": [
				{
					"internalType": "uint256",
					"name": "",
					"type": "uint256"
				}
			],
			"stateMutability": "view",
			"type": "function"
		}
	]
}